:100000000C941F040C9447040C9447040C9447046C
:100010000C9447040C9447040C9447040C94470434
:100020000C9447040C9447040C947C1B0C94EB1B1D
:100030000C9447040C9447040C9447040C94470414
:100040000C9447040C942E1F0C9447040C94470402
:100050000C9447040C9447040C9447040C941D1E04
:100060000C9447040C9447040C9447040C944704E4
:100070000C9447040C9447040C9447040C944704D4
:100080000C94671E0C9447040C9447040C9447048A
:100090000C9447040C9447040C9447040C944704B4
:1000A0000C9447040C9447040C944704000000008F
:1000B000003E5B4F5B3E3E6B4F6B3E1C3E7C3E1CEE
:1000C000183C7E3C181C577D571C1C5E7F5E1C0034
:1000D000183C1800FFE7C3E7FF0018241800FFE7EB
:1000E000DBE7FF30483A060E2629792926407F05AE
:1000F0000507407F05253F5A3CE73C5A7F3E1C1CC4
:1001000008081C1C3E7F14227F22145F5F005F5F83
:1001100006097F017F006689956A6060606060946F
:10012000A2FFA29408047E040810207E2010080874
:100130002A1C08081C2A08081E101010100C1E0C7F
:100140001E0C30383E3830060E3E0E060000000011
:100150000000005F00000007000700147F147F14F8
:10016000242A7F2A1223130864623649562050003D
:1001700008070300001C2241000041221C002A1C29
:100180007F1C2A08083E0808008070300008080814
:100190000808000060600020100804023E51494534
:1001A0003E00427F400072494949462141494D3352
:1001B0001814127F1027454545393C4A49493141B9
:1001C000211109073649494936464949291E000087
:1001D00014000000403400000008142241141414DC
:1001E0001414004122140802015909063E415D59C8
:1001F0004E7C1211127C7F494949363E41414122D1
:100200007F4141413E7F494949417F090909013EFA
:10021000414151737F0808087F00417F4100204021
:10022000413F017F081422417F404040407F021C33
:10023000027F7F0408107F3E4141413E7F0909094A
:10024000063E4151215E7F09192946264949493216
:1002500003017F01033F4040403F1F2040201F3FDC
:100260004038403F63140814630304780403615961
:10027000494D43007F4141410204081020004141A3
:10028000417F04020102044040404040000307084F
:100290000020545478407F2844443838444444284B
:1002A000384444287F385454541800087E090218F2
:1002B000A4A49C787F0804047800447D400020407A
:1002C000403D007F1028440000417F40007C0478BE
:1002D00004787C080404783844444438FC18242406
:1002E0001818242418FC7C08040408485454542486
:1002F00004043F44243C4040207C1C2040201C3C03
:100300004030403C44281028444C9090907C4464F9
:10031000544C44000836410000007700000041368C
:10032000080002010204023C2623263C1EA1A16112
:10033000123A4040207A3854545559215555794144
:100340002154547841215554784020545579400C1B
:100350001E527212395555555939545454593955FC
:100360005454580000457C410002457D420001453F
:100370007C40F0292429F0F0282528F07C545545AC
:10038000002054547C547C0A097F4932494949323F
:100390003248484832324A4848303A4141217A3A54
:1003A00042402078009DA0A07D39444444393D401E
:1003B00040403D3C24FF2424487E4943662B2FFCCB
:1003C0002F2BFF0929F620C0887E09032054547979
:1003D000410000447D413048484A32384040227A4A
:1003E000007A0A0A727D0D19317D2629292F2826C7
:1003F0002929292630484D402038080808080808CF
:100400000808382F10C8ACBA2F102834FA00007B27
:10041000000008142A142222142A1408950022002D
:1004200095AA005500AAAA55AA55AA000000FF00E7
:10043000101010FF00141414FF001010FF00FF1024
:1004400010F010F0141414FC001414F700FF000056
:10045000FF00FF1414F404FC141417101F10101FD5
:10046000101F1414141F00101010F0000000001FC3
:10047000101010101F10101010F010000000FF10CE
:100480001010101010101010FF10000000FF1400CA
:1004900000FF00FF00001F10170000FC04F41414FC
:1004A0001710171414F404F40000FF00F7141414C8
:1004B00014141414F700F7141414171410101F1048
:1004C0001F141414F4141010F010F000001F101F6B
:1004D0000000001F14000000FC140000F010F010D9
:1004E00010FF10FF141414FF141010101F00000050
:1004F00000F010FFFFFFFFFFF0F0F0F0F0FFFFFF54
:100500000000000000FFFF0F0F0F0F0F38444438AA
:10051000447C2A2A3E147E02020606027E027E02E5
:1005200063554941633844443C04407E201E200604
:10053000027E020299A5E7A5991C2A492A1C4C7241
:1005400001724C304A4D4D303048784830BC625AC8
:10055000463D3E494949007E0101017E2A2A2A2A58
:100560002A44445F444440514A444040444A514034
:100570000000FF0103E080FF000008086B6B0836F5
:1005800012362436060F090F060000181800000066
:100590001010003040FF0101001F01011E00191D55
:1005A0001712003C3C3C3C00000000000601150115
:1005B000260137014A015D01720188019F01B801DE
:1005C000D201EE010B022A024B026E029302BA0222
:1005D000E40210033F037003A403DC031704550473
:1005E0009704DD0427057505C80520067D06E0068D
:1005F0004907B8072D08A9082D09B9094D0AEA0AC3
:10060000900B400CFA0CC00D910E6F0F5A10531145
:100610005B1272139A14D41520178018F519801BD9
:10062000231DDE1EB420A622B524E4263429A72BE0
:10063000402E0031EA330037453ABC3D68414C4515
:100640006B49C84D68524F57805C006210111213FD
:10065000151617181A1C1D1F21232527292C2E318A
:1006600034373A3E4145494E52575C62686E757B5D
:10067000838B939CA5AFB9C4D0DCE9F700000002DE
:1006800000090F0000030401000C0000000000003E
:100690000000000000000000000000F0F89C8E87C1
:1006A00083878E9CF8F00000FEFF0303030303071B
:1006B0000EFCF80000FEFF0303030303070EFCF823
:1006C0000000FFFF00000000000000FFFF0000FE30
:1006D000FF8383838383C7EE7C380000F8FC0E071A
:1006E000030303070EFCF800003F7FE0C08080C0DA
:1006F000E07F3FFFFF01010101010101FFFF000059
:10070000FFFF0C0C0C0C1C3E77E3C100007FFFC008
:10071000C0C0C0C0E0703F1F00001F3F70E0C0C0FD
:10072000C0E0703F1F00007FFFC1C1C1C1C1E377BE
:100730003E1C00001F3F70E0C0C0C0E0703F1F00C3
:100740000000000001FFFF01000000000000002485
:100750000027002A002D003000D5F08D14A1C8819B
:10076000CFD9F1AF200014021302120215020702C2
:10077000080204010C01060100080B00020202003D
:100780000009040000010202000005240010010518
:100790002401010104240206052406000107058145
:1007A0000310004009040100020A000000070502CE
:1007B0000240000007058302400000040309041200
:1007C000010002EF020140412336800001010203D3
:1007D0000141726475696E6F204C4C430041726434
:1007E00075696E6F204C656F6E6172646F000408EE
:1007F0000201104080401020408040800802040127
:100800008040201002011080102040402000000095
:1008100000250028002B002E0031000404040404ED
:100820000304050202020204030202020206060693
:10083000060606040402020204040301991F11249F
:100840001FBECFEFDAE0DEBFCDBF12E0A0E0B1E027
:10085000E8E0FBE402C005900D92AC38B107D9F78F
:1008600027E0ACE8B2E001C01D92AD35B207E1F778
:1008700014E0CFE1D4E004C02197FE010E9463257B
:10088000CE31D107C9F70E94CC1F0C9482250C945D
:10089000000087E593E020E0B22FB111BFEFFC012B
:1008A0000024B193B193B193B1930394D1F7089518
:1008B0004F925F926F927F928F929F92AF92BF9270
:1008C000CF92DF92EF92FF92CF93DF93EC014A0138
:1008D0005B0181E08093F002712C612C60E072E199
:1008E0008AE790E0A3019E010E941B2369017A011F
:1008F00081E0C81AD108E108F10891E0C114D104DF
:1009000081E0E806F10484F068E478EE81E090E0AC
:10091000A3019E010E941B2369017A0181E0C81A8C
:10092000D108E108F10893E080918100887F892B4C
:1009300080938100DE01AA0FBB1FA50194010E94D4
:100940003A2328EE33E040E050E00E944D23D0925D
:100950008900C09288002093EC023093ED0240930E
:10096000EE025093EF0280916F00826080936F00DF
:10097000DF91CF91FF90EF90DF90CF90BF90AF903D
:100980009F908F907F906F905F904F900895FC01A3
:100990008091E402882311F13FB7F89482E08093BC
:1009A000E9002091F200822F90E01816190614F445
:1009B00081E090E0882339F0289844E64093E302F0
:1009C0004091F1004083222339F02091F20021115F
:1009D00003C02BE62093E8003FBF08958FEF9FEF01
:1009E00008952FB7F89483E08093E9009091E80090
:1009F000892F807295FF04C09091F20080E4891BDA
:100A00002FBF08958091DB0281110DC082E0809399
:100A1000D70284E08093D8021092DA021092D902B1
:100A200081E08093DB0287ED92E00895CF93DF931E
:100A30001F92CDB7DEB76983DC01ED91FC91028096
:100A4000F381E02D41E050E0BE016F5F7F4F0995DB
:100A50000F90DF91CF91089583E08093E90080911A
:100A6000F200882319F08AE38093E80008950E9439
:100A7000F10490E00895CF93DF931F92CDB7DEB7D6
:100A8000FC018485958597FD08C02FEF3FEF3587E2
:100A900024870F90DF91CF910895CE0101960E9497
:100AA000C704019719F4898190E0F3CF8FEF9FEF8E
:100AB000F0CF0F931F93CF93DF931F92CDB7DEB785
:100AC0008C01FC018485958597FF0BC0CE010196B2
:100AD0000E94C704019771F4898190E0F80195871D
:100AE0008487F801848595850F90DF91CF911F91C0
:100AF0000F9108958FEF9FEFF1CFFC0184859585CD
:100B000097FD0BC09FB7F89482E08093E900809135
:100B1000F2009FBF90E0019608959FB7F89482E09D
:100B20008093E9008091F2009FBF90E0089540918A
:100B3000D1025091D2022091CF023091D0024217BF
:100B40005307B4F49091E8009570E1F39091E800B8
:100B500092FD19C08093F1008091D1029091D20250
:100B600001968F739927892B19F48EEF8093E800F3
:100B70008091D1029091D20201969093D2028093FB
:100B8000D10281E0089580E00895EF92FF920F93E3
:100B90001F93CF93DF93F82E192FE62E042F81E0B9
:100BA000860F880F0E94970583E00E949705CF2D3E
:100BB000D12FEC0EFD2EF11CCE15DF05B9F007FF8D
:100BC00013C0FE0184910E949705182F80E00E94B7
:100BD0009705812321968111EFCFDF91CF911F914E
:100BE0000F91FF90EF9008958881EDCF81E0F5CFD0
:100BF000DF92EF92FF920F931F93CF93DF93D82E44
:100C00008A01EB017B01E40EF51ECE15DF0559F0DC
:100C1000D7FE12C0FE0184910E9497052196811192
:100C2000F4CF0FEF1FEFC801DF91CF911F910F910C
:100C3000FF90EF90DF9008958881EECF0F931F9380
:100C4000CF93DF931F92CDB7DEB782E0898342E472
:100C500050E069E777E080E80E94F8050E9402050D
:100C6000DC0112960D911C910115110589F0D80136
:100C7000ED91FC910280F381E02DBE016F5F7F4F0B
:100C8000C801099597FD04C0F80100851185ECCFD6
:100C900089810F90DF91CF911F910F91089561503D
:100CA00030F02091F100FC0120830196F8CF2898C4
:100CB00084E68093E3020895AF92BF92CF92DF92D1
:100CC000EF92FF920F931F93CF93DF936C017B0101
:100CD0008B01040F151FEB015E01AE18BF08C01792
:100CE000D10759F06991D601ED91FC910190F08105
:100CF000E02DC6010995892B79F7C501DF91CF91C8
:100D00001F910F91FF90EF90DF90CF90BF90AF9029
:100D10000895282F30E0F901E458F94F9491F90132
:100D2000E251F84F8491255E374FF9012491222337
:100D300009F430C09923E9F091509F30D0F4E92FA5
:100D4000F0E0EB55F94F0C946325D306D706B406B3
:100D5000CB06CF06B906B906B906DA06E006E40600
:100D6000E806EE06B906F206909180009F77909310
:100D70008000E22FF0E0EE0FFF1FE35FF74FA59139
:100D8000B4919FB7F894EC91611132C080958E2395
:100D90008C939FBF0895909180009F7DE8CF9091A4
:100DA0008000977FE4CF94B59F7794BDE2CF94B550
:100DB0009F7DFBCF909190009F7790939000D9CF2B
:100DC000909190009F7DF9CF90919000977FF5CF03
:100DD0009091C0009F779093C000CBCF9091C000BE
:100DE0009F7DF9CF9091C200977F9093C200C1CFB1
:100DF0008E2BCECFCF93DF9390E0FC01E251F84FE2
:100E00002491855E974FFC0184918823C9F090E07E
:100E1000880F991FFC01E55BF84FA591B491FC0187
:100E2000E35FF74FC591D49161110DC09FB7F8945E
:100E30008C91209582238C938881282328839FBFBF
:100E4000DF91CF910895623051F49FB7F8943C91AF
:100E5000822F809583238C93E8812E2BEFCF8FB741
:100E6000F894EC912E2B2C938FBFEACF1F93CF9346
:100E7000DF93182FEB0161E00E94FA06209739F406
:100E800060E0812FDF91CF911F910C948906CF3FB5
:100E9000D10511F461E0F5CFE12FF0E0E458F94F0E
:100EA000E491E150EF3008F07FC0F0E0E65AF84FEF
:100EB0000C94632569077107760780078A07D407B2
:100EC000D407D40794079E07A807B207BF07D40723
:100ED000C70784B5806884BDC7BDDF91CF911F91DE
:100EE000089584B5806284BDC8BDF7CF809180002D
:100EF000806880938000D0938900C0938800EDCFF4
:100F000080918000806280938000D0938B00C0939A
:100F10008A00E3CF80918000886080938000D09326
:100F20008D00C0938C00D9CF809190008068809311
:100F30009000D0939900C0939800CFCF80919000FB
:100F4000806280939000D0939B00C0939A00C5CF9D
:100F500080919000886080939000D0939D00C09312
:100F60009C00BBCF8091C00080688093C0008091BE
:100F7000C0008F7B8093C000C093CF00AECF809124
:100F8000C00080628093C000C093D000A6CF809143
:100F9000C20088608093C2008091C2008B7F8093E2
:100FA000C200C093D20099CFC038D1050CF072CFE7
:100FB00067CF3FB7F8948091C1029091C202A0918F
:100FC000C302B091C40226B5A89B05C02F3F19F0FB
:100FD0000196A11DB11D3FBFBA2FA92F982F8827B9
:100FE000BC01CD01620F711D811D911D42E0660F94
:100FF000771F881F991F4A95D1F708958F929F9266
:10100000AF92BF92CF92DF92EF92FF924B015C01C1
:101010000E94D9076B017C010E94D9076C197D09D8
:101020008E099F09683E734081059105A8F321E070
:10103000821A9108A108B10888EEC80E83E0D81E74
:10104000E11CF11C81149104A104B10429F7FF9063
:10105000EF90DF90CF90BF90AF909F908F900895CA
:101060008F929F92AF92BF92CF92DF92EF92FF92B8
:101070000F931F93CF93DF936C017B018A018091C3
:101080000B01882309F45CC08091E402882309F4F1
:1010900057C08091D60280FF05C08091E000826039
:1010A0008093E000E801B12C8AEFA82E93E0892E0E
:1010B0002AE3922E209711F4BB20D9F10E94F1046B
:1010C00081110AC0AA94AA20D9F161E070E080E001
:1010D00090E00E94FE07EECF8C171D0611F00CF079
:1010E0008C2F9FB7F8948092E9002091E80025FDAD
:1010F00002C09FBFDFCF282F30E0C21BD30BF70108
:10110000815020F041914093F100FACFE20EF31E9E
:10111000BB2021F09092E800B12CEBCF8091E80049
:1011200085FDE7CF9092E800BB24B394209709F3A4
:10113000F3CF5D9884E68093D502101611063CF03B
:1011400081E090E0F6019383828310E000E0C80123
:10115000DF91CF911F910F91FF90EF90DF90CF9093
:10116000BF90AF909F908F9008954FB18CB123B1F5
:1011700090E08095909533E0959587953A95E1F7C5
:10118000887030E0209530953595279535952795D1
:101190002470822B942F9095907F892B0895FC01C9
:1011A00021912EBD9C5F21910DB407FEFDCF2EBD78
:1011B000E817F907C1F70DB407FEFDCF0895CF92E8
:1011C000DF92EF92FF920F931F93CF93E82FF0E0FF
:1011D000E65CF74FC491E62FF0E0603398F5E45BEE
:1011E000F94FE4910E2F10E0F12CE12C60E074E255
:1011F00084EF90E0A70198010E941B232150310940
:101200004109510991E02115310581E04807510557
:101210006CF060E970ED83E090E0A70198010E9416
:101220001B23215031094109510993E0C13089F054
:10123000C330F9F0CF911F910F91FF90EF90DF90A5
:10124000CF900895EE0FFF1FE45BFA4F05911491C4
:10125000CBCF80918100887F892B80938100309350
:1012600089002093880080916F00826080936F00D6
:10127000E1CF80919100887F892B809391003093FA
:101280009900209398001093BB020093BA0281E06A
:101290008093B90280917100826080937100CACFFF
:1012A000E82FF0E0E65CF74FE491E13019F0E3302D
:1012B00089F0089580916F008D7F80936F008091F9
:1012C000E802E091E902F091EA0290818095892399
:1012D000808308951092B9028091E502E091E602C0
:1012E000F091E702F2CFCF93DF939091EB0292302F
:1012F00081F0C82FE92FF0E0E65CF74FD4919F5FB3
:101300009093EB0261E00E94FA06D13029F0D330CD
:1013100049F1DF91CF9108951092800010928100E1
:10132000809181008860809381008091810081603C
:10133000809381008C2F90E0FC01E55EF74FE491F3
:10134000F0E0EE0FFF1FE35FF74F259134913093EC
:10135000EA022093E9028251984FFC018491809324
:10136000E802D7CF109290001092910080919100E6
:1013700088608093910080919100816080939100BA
:101380008C2F90E0FC01E55EF74FE491F0E0EE0F6A
:10139000FF1FE35FF74F259134913093E7022093CD
:1013A000E6028251984FFC0184918093E50280917E
:1013B000EB02882321F06CE380E00E94DF0880E0EC
:1013C000DF91CF910C94500960387105E8F44034F6
:1013D0005105D0F4342F369536953695A0E83A9FCE
:1013E000F0011124E60FF71FE80FF91F3489CA0135
:1013F0008770992741E050E001C0440F8A95EAF7D1
:10140000222319F0432B448B089540954323FBCFAF
:10141000DF92EF92FF920F931F93CF93DF937C01A4
:10142000D22E8B01040F111DEB0177FF02C0D0E01B
:10143000C0E0C8010134110514F080E490E0C81741
:10144000D9074CF42D2DAE01B70183E493E00E943F
:10145000E4092196EECFDF91CF911F910F91FF907C
:10146000EF90DF900895CF92DF92EF92FF920F936B
:101470001F93CF93DF936B01122FEC017C01E40EDD
:10148000F11CCE15DF0544F4202F412FB601CE010B
:101490000E94080A2196F5CFDF91CF911F910F91FD
:1014A000FF90EF90DF90CF9008952F923F924F9250
:1014B0005F926F927F928F929F92AF92BF92CF92E4
:1014C000DF92EF92FF920F931F93CF93DF935C0114
:1014D0004B01C42FD0E081E090E06C01CC1ADD0A12
:1014E000442455244C1A5D0A440C551C662463940C
:1014F000712CF12CE12C822F8170282E332433940F
:10150000300E122F1270D7FC06C0219782E0480ED1
:10151000511CC40CD51C8FEFE81AF80A82E0680E43
:10152000711CC60CD71C2220B9F04C2F440F430D60
:1015300021E0B4016C1B7D0BC5018E0D9F1D0E9427
:10154000080A21E0402F460DB4016E197F09CE0133
:101550008A0D9B1D0E94080A1123B9F04C2F440FDD
:10156000430D21E0B4016C1B7D0BC5018E199F0951
:101570000E94080A21E0402F460DB4016E197F0930
:10158000C5018C1B9D0B0E94080AEC16FD060CF48D
:10159000BACFDF91CF911F910F91FF90EF90DF9025
:1015A000CF90BF90AF909F908F907F906F905F9003
:1015B0004F903F902F9008956F927F928F929F92BD
:1015C000AF92BF92DF92EF92FF920F931F93CF9350
:1015D000DF933C017B01142FC22FD02E802E912C43
:1015E0005401A80EB91E802F880F481B01E0C501C9
:1015F0000E94330AD0E0C401880F991FC81BD90B81
:101600002197E80CF91CC301810F911D88199909D4
:101610008E0121E04D2DB70101970E94550A22E06D
:101620004D2DB701C5010E94550ADF91CF911F9141
:101630000F91FF90EF90DF90BF90AF909F908F90B1
:101640007F906F900895DF92EF92FF920F931F9318
:10165000CF93DF937B01D22E8C01040F111DEC017F
:1016600097FF02C0D0E0C0E0C8010138110514F0B6
:1016700080E890E0C817D9074CF42D2DA701BE01D2
:1016800083E493E00E94E4092196EECFDF91CF91AD
:101690001F910F91FF90EF90DF9008952F923F924E
:1016A0004F925F926F927F928F929F92AF92BF9272
:1016B000CF92DF92EF92FF920F931F93CF93DF931E
:1016C000CDB7DEB72F970FB6F894DEBF0FBECDBFF4
:1016D0004B015F874E875901C982261737070CF0E7
:1016E000FCC0E616F7060CF40FC1621773075CF036
:1016F000382D292D4501A32EB22E382F292F8E8566
:101700009F853E872F878E149F04B1F52E853F85D8
:101710002817390734F4382F292F8E859F853E8767
:101720002F870817190744F04E855F85401751072A
:1017300014F41F870E878C014E854F5F401B298153
:10174000B401C8012F960FB6F894DEBF0FBECDBF0F
:10175000DF91CF911F910F91FF90EF90DF90CF908D
:10176000BF90AF909F908F907F906F905F904F90C1
:101770003F902F900C94230B302F212F8C01832F1F
:10178000922F3E2D2F2D7401832E922E2E853F8574
:10179000201B310B39872887A5014E195F095B870C
:1017A0004A872C01401A510A94012E193F093B83A4
:1017B0002A83AC012E853F85421B530B5D834C83EE
:1017C000A4014A195B095D874C87A814B90409F480
:1017D0003FC0C50101979F838E833701312C212C97
:1017E000D12CC12C2E813F8126153705A4F1C601CD
:1017F0006A857B850E944F25FB01E00FF11FC10127
:101800006A817B810E944F25600F711F4885598531
:10181000C40ED51E240C351C6E177F071CF49E2F9A
:10182000FB01692F6F5F462F4E1B2981B301CF014A
:101830000E94230B5FEF651A750AD4CF3E852F8572
:101840009F878E87832F922F382D292D450169C0C0
:10185000BF82AE82C2CFC3018A199B092C813D8110
:10186000829F5001839FB00C929FB00C1124C30142
:101870008E199F09849D7001859DF00C949DF00C3C
:101880001124861497040CF44FC0C5016C857D8526
:101890000E944F25EE85FF85E60FF71FC7016A817D
:1018A0007B810E944F25600F711F4C815D81A40ECA
:1018B000B51EE40CF51C6E177F071CF49E2FFB0170
:1018C000692F6F5F462F4E1B2981B301CF010E9404
:1018D000230B5FEF651A750AD4CFE216F3060CF0FE
:1018E00012CFE616F7060CF4A9CF302F212F0E8564
:1018F0001F859F878E87832F922F3A2D2B2D5B017B
:101900004701E32EF22EF4CEE216F3060CF43ECF9E
:10191000302F212F0E851F853E872F873E2D2F2D9F
:101920007501A32EB22E32CF2F960FB6F894DEBFDC
:101930000FBECDBFDF91CF911F910F91FF90EF9020
:10194000DF90CF90BF90AF909F908F907F906F90DF
:101950005F904F903F902F9008952F923F925F920B
:101960006F927F928F929F92AF92BF92CF92DF92AF
:10197000EF92FF920F931F93CF93DF9300D000D08D
:1019800000D0CDB7DEB77C018B01522E242F30E082
:101990003E832D8381E090E05C01A21AB30AC90165
:1019A0009195819591099C01220F331F3A832983D8
:1019B0004D815E81460F571F252DB70183E493E0CB
:1019C0000E94E409A8018D819E81481B590B252D99
:1019D000B70183E493E00E94E4096D817E816E0D7E
:1019E0007F1D252DA80183E493E00E94E409B7013F
:1019F0002D813E81621B730B252DA80183E493E0AA
:101A00000E94E409D12CC12C81E090E09C838B835F
:101A10002D813E81C216D3060CF06FC0B7FC0BC0FF
:101A2000215031093E832D8389819A8102969A83C0
:101A30008983A80EB91E9FEFC91AD90A2B813C8150
:101A40002E5F3F4F3C832B83A20EB31E37016C0CDD
:101A50007D1C252D8D809E80800E911EA401B301DA
:101A600083E493E00E94E40917012C183D08252D1A
:101A7000A401B10183E493E00E94E409252D48010B
:101A80008D819E81881A990AA401B30183E493E0B1
:101A90000E94E409252DA401B10183E493E00E9492
:101AA000E4094601800E911E252DA4016D807E80E3
:101AB0006E0C7F1CB30183E493E00E94E409252DA2
:101AC000A40117018D819E81281A390AB10183E48E
:101AD00093E00E94E40948018C189D08252DA4017B
:101AE000B30183E493E00E94E409252DA401B10130
:101AF00083E493E00E94E4098BCF26960FB6F89416
:101B0000DEBF0FBECDBFDF91CF911F910F91FF9030
:101B1000EF90DF90CF90BF90AF909F908F907F908D
:101B20006F905F903F902F9008952F923F924F9229
:101B30005F926F927F928F929F92AF92BF92CF925D
:101B4000DF92EF92FF920F931F93CF93DF93CDB766
:101B5000DEB72D970FB6F894DEBF0FBECDBF6A304B
:101B600069F5FC01EA5EFB4FDC01A85EBB4F2C91DE
:101B700048E0249F9001112440815181240F351F9A
:101B80003183208314971D921C922D960FB6F894E2
:101B9000DEBF0FBECDBFDF91CF911F910F91FF90A0
:101BA000EF90DF90CF90BF90AF909F908F907F90FD
:101BB0006F905F904F903F902F9008956D3029F374
:101BC0009D878C878C5E9B4F9A838983FC018080E4
:101BD00091802C853D85285E3B4F3C832B8330E8EC
:101BE000831691040CF071C0EC85FD85EA5EFB4F15
:101BF0006080718040E4641671040CF066C0AB81B3
:101C0000BC814C9045E09401449E200D311D11246F
:101C1000121613060CF059C0242C312C910153E0FC
:101C2000220F331F5A95E1F7260D371D12161306A2
:101C30000CF04BC0649FB001112410E000E0FB01E8
:101C4000E455FF4FFB87EA87E0E0053029F0EA859D
:101C5000FB85E00FF11FE491530198E0592E2E2FE0
:101C600030E03E832D83E170EF83F12CE12CE4140E
:101C7000D8F4C4018E0D9F1D99878887D12CC12C63
:101C8000C41470F4A6014A0D5B1D2F816885798507
:101C90008C859D850E94E4099FEFC91AD90AF0CF6F
:101CA000AFEFEA1AFA0AE3CFED81FE81F595E795E9
:101CB0005A94A20CB31C5110D2CF0F5F1F4F820C4D
:101CC000931C0630110509F0BFCFEB81FC81208108
:101CD000422F50E0A981BA818D919C91B6E02B9F53
:101CE000800D911D1124E981FA8191838083EC8517
:101CF000FD85E75EFB4F2081222309F446CF6AEF82
:101D000064039001659F300D112420583F4F281720
:101D100039070CF03ACFAC85BD85ED91FC91119758
:101D20000190F081E02D6AE0CD012D960FB6F89478
:101D3000DEBF0FBECDBFDF91CF911F910F91FF90FE
:101D4000EF90DF90CF90BF90AF909F908F907F905B
:101D50006F905F904F903F902F900994089590E07E
:101D600080E00895AF92BF92CF92DF92EF92FF9200
:101D70000F931F93CF93DF93EC015B016C0182E122
:101D8000C80ED11C01E028E040E468E270E0C60122
:101D90000E94330A7E0188E1E80EF11C01E010E0A8
:101DA00022E046E06CE270E0C7010E94550A24E0A0
:101DB0004AE360E370E0C7010E94330A00E026E0D6
:101DC00040E465E270E0C6010E94330A01E028E0C9
:101DD00041E063E270E0CE0182960E94330A23E084
:101DE00042E06FE170E0CE0181960E94330A02E08A
:101DF00024E145E06BE170E0CE0186960E94DC0AAA
:101E00007E0188E2E80EF11C21E045E064E170E02B
:101E1000C7010E94080A10E000E023E042E066E10A
:101E200070E0C7010E94550A01E024E143E06EE141
:101E300070E0CE018D960E94DC0ACE01C49603E0CC
:101E40002AE04EE065E270E08A0D9B1D0E94DC0AEC
:101E50007E0187E3E80EF11CEA0CFB1CB12CA12CDF
:101E600001E024E042E063E270E0C7010E94DC0A86
:101E70008FEFA81AB80A83E0E80EF11C83E0A816D9
:101E8000B10471F704E023E248E06CE070E0CE01B9
:101E9000865B9F4F0E94DC0A01E024E044E06CE096
:101EA00070E0CE01825B9F4F0E94330A00E021E088
:101EB00040E46AE270E0C6010E94330A2CE041E08F
:101EC0006AE270E0CE01875B9F4F0E94330ADF9188
:101ED000CF911F910F91FF90EF90DF90CF90BF9027
:101EE000AF9008954F925F926F927F928F929F92E0
:101EF000AF92BF92CF92DF92EF92FF920F931F9318
:101F0000CF93DF93EC015B014B018EE0880E911CB7
:101F100001E025E04AE1B401CE010E94330A9501B7
:101F20002E5E3F4F8E010F5F1F4FB5016F5E7F4FDB
:101F3000C12C7901AE01CE010E944E0B7E018BE1D6
:101F4000E80EF11C01E025E044E0B401C7010E9465
:101F5000330A2DE044E0B501C7010E94330A00E0D6
:101F600021E041E0B501C7010E94330A25018AE062
:101F7000480E511CAE01495F5F4F35018DE0680E80
:101F8000711CCC24C39472018A019301B301CE0168
:101F900006960E944E0B450188E0880E911C01E0D8
:101FA00022E041E0B401CE0108960E94330AB50157
:101FB000645F7F4F22E043E0CE0109960E94330A1E
:101FC000B501675F7F4F23E043E0CE010A960E9490
:101FD000330A21E043E0B401CE010B960E94330A9C
:101FE000B5016C5F7F4F23E043E0CE010C960E9469
:101FF000330A23E041E0B201CE010E960E94330A7B
:1020000022E041E0B401CE010F960E94330AB501EF
:10201000655F7F4F23E047E0CE0141960E94330A7F
:102020006E0182E1C80ED11C7E0188E1E80EF11C30
:1020300001E021E041E0B201C6010E94330A82E0E2
:10204000C80ED11CCE14DF0499F700E021E04FE167
:10205000B301CE010E94330A3E0180E2680E711C7A
:1020600001E023E04BE0B501C3010E94330ACE0139
:102070008B968E01045D1F4F95012F5F3F4FCC243F
:10208000C3947501AC01B5010E944E0B87E0A80E08
:10209000B11C01E023E044E0B501C3010E94330A12
:1020A000CE0184968E010B5D1F4F75019401AC012A
:1020B000B5010E944E0BDF91CF911F910F91FF90C0
:1020C000EF90DF90CF90BF90AF909F908F907F90D8
:1020D0006F905F904F900895EF92FF920F93CF9380
:1020E000DF93EC017B0101E025E042E00E94330A2E
:1020F00000E021E041E0B701CE0101960E94330AE1
:10210000B7016C5F7F4F01E021E042E0CE01039612
:102110000E94330AB7016A5F7F4F21E04BE0CE0196
:102120000E94330AB7016B5F7F4F21E041E0CE018F
:102130000B960E94330A2696B7016D5F7F4F22E00F
:1021400041E0CE010E94330AB7016F5F7F4F21E06B
:1021500041E0CE010E94330ADF91CF910F91FF90B1
:10216000EF900895FF920F931F93CF93DF938C010D
:10217000EB01F8800E940523F81621F06F2DC801AD
:102180000E940D23CE01DF91CF911F910F91FF90FF
:102190000895CF93C091F10281E190E00E94052360
:1021A000C81729F06C2F81E190E00E940D23C091A7
:1021B000F20282E190E00E940523C81729F06C2FFB
:1021C00082E190E00E940D2381EF92E0CF9108958B
:1021D000CF93DF93EB010E9405238883CE01DF912B
:1021E000CF9108958F929F92AF92BF920F931F93BA
:1021F000CF93DF93CDB7DEB7A1970FB6F894DEBFCC
:102200000FBECDBF19A2423008F44AE08E010F5D27
:102210001F4F842E912CB12CA12CA50194010E945A
:102220004D23E62FB901CA01EA3044F5E05DD8013B
:10223000EE938D01232B242B252B79F790E080E062
:10224000109769F0FD0101900020E9F73197AF0187
:102250004A1B5B0BBD0183E493E00E945C06A196E0
:102260000FB6F894DEBF0FBECDBFDF91CF911F91A7
:102270000F91BF90AF909F908F900895E95CD7CF5A
:10228000FC0101900020E9F73197AF01481B590B81
:10229000BC0183E493E00C945C0681E08093CE0261
:1022A00080919D0290919E029093F2028093F102A0
:1022B0006EEC72E080E190E00E94B2100E94C910C2
:1022C00082E090E0909358078093570786E290E071
:1022D00090935A078093590785E391E00C9440113D
:1022E000CF92DF92EF92FF92CF93DF936C01990F21
:1022F000EE08FF08F7FE19C06DE283E493E00E9448
:10230000950DEC0166277727CB016C197D098E09A5
:102310009F094AE00E94F2108C0F9D1FDF91CF9120
:10232000FF90EF90DF90CF9008954AE0C701B6018B
:10233000DF91CF91FF90EF90DF90CF900C94F2104F
:10234000DF92EF92FF920F931F93CF93DF9300D012
:10235000CDB7DEB706E110E082E0D82E9EE2E92E8E
:10236000F12C0E944904B80184E090E00E94720FB1
:10237000D0925B07F0925807E0925707C801049685
:1023800090935A078093590785E491E00E94401189
:1023900087E593E00E94CF08015011090130110533
:1023A00001F781E080935B0704E110E01093580788
:1023B0000093570787E190E090935A07809359075D
:1023C0008CE491E00E944011109358070093570746
:1023D00081E290E090935A078093590783E591E05A
:1023E0000E94401110935807009357078BE290E02A
:1023F00090935A07809359078091CD02882309F45E
:1024000061C08BE591E00E9440118091CE0288234B
:1024100009F45BC081E190E00E940523898382E199
:1024200090E00E9405238A8389819A819093F20229
:102430008093F10218161906C4F584E190E0909398
:1024400058078093570785E390E090935A0780934D
:1024500059078EE691E00E94401181E090E0909350
:102460008F0280938E0284E490E0909358078093CB
:1024700057078CE190E090935A07809359078DE7B6
:1024800091E00E9440118AE590E090935807809374
:10249000570786E290E090935A07809359078091FE
:1024A000F1029091F2020E94701187E593E00F9083
:1024B0000F90DF91CF911F910F91FF90EF90DF90E0
:1024C0000C94CF0884E691E09ECF1092F202109215
:1024D000F10210928F0210928E02E7CF0E947D25AA
:1024E0008F929F92AF92BF92CF92DF92EF92FF9224
:1024F0000F931F93CF93DF930E94490481E0809351
:102500005B0786E090E09093AC028093AB028DE194
:1025100090E09093B2028093B1026DE170E086E0AA
:1025200090E00E946C1087E593E00E94CF08109223
:10253000AD02CFE9D2E007E912E086E9882E912CBE
:10254000A12CB12C99E3C92ED12CE12CF12C0E94A5
:10255000AD22A50194010E941B2369577F4F8F4F25
:102560009F4F0E949A2469937993899399930E942B
:10257000AD22A70196010E941B23F801619371937C
:102580008F01F2E0CB3ADF0711F7DF91CF911F9176
:102590000F91FF90EF90DF90CF90BF90AF909F9002
:1025A0008F90089510929E0210929D021092AF0299
:1025B0001092AE0282E090E090939102809390029C
:1025C0000E9470128CEE9FEF90939602809395027A
:1025D0000E94AD222AE330E040E050E00E941B233D
:1025E000709394026093930208952F923F924F92BA
:1025F0005F926F927F928F929F92AF92BF92CF9293
:10260000DF92EF92FF920F931F93CF93DF93772484
:10261000739488E1282E312C90E2492E512C20E32E
:10262000C22ED12C32E0A32EB12C45E0842E912C69
:102630000E94B50882FD78C00E94B50866246394A4
:1026400084FD06C00E94B508682E661C6624661CC0
:102650006092B0020E94B508E0908E02F0908F0266
:1026600084FF1EC08091920281111AC0C0918C0219
:10267000D0918D02C70101968C179D078CF0809137
:10268000CD02811108C042E350E060E070E08BEDC4
:1026900093E00E9458042196D0938D02C0938C023F
:1026A0000E94B50887FF1CC080919202811118C05A
:1026B000C0918C02D0918D021C161D068CF4809165
:1026C000CD02811108C042E350E060E070E08BED84
:1026D00093E00E9458042197D0938D02C0938C02FE
:1026E000CAE1D0E010E000E082E0E80EF11C809149
:1026F0008C0290918D02E016F1067CF021E08017AB
:10270000910709F020E042E0BE018EE090E00E94D7
:10271000AD0C0F5F1F4F2A96EACF87E593E00E942A
:10272000CF086092920284CF8091CD02811108C0BF
:1027300044E650E060E070E086E295E00E945804D4
:1027400080918C0290918D02892B21F40E94D212EB
:102750000E94971680918C0290918D02019709F04A
:1027600066C00E94490470925B071092580710924D
:10277000570710925A071092590787E891E00E9474
:102780004011109258071092570788E090E09093FC
:102790005A07809359078CE991E00E9440111092EA
:1027A00058071092570780E190E090935A07809362
:1027B00059078CEA91E00E9440111092580710923C
:1027C000570730925A07209259078DEB91E00E94EB
:1027D0004011109258071092570750925A07409292
:1027E000590784ED91E00E94401110925807109211
:1027F0005707D0925A07C092590781EE91E00E9484
:10280000401187E593E00E94CF0860ED77E080E01B
:1028100090E00E94FE070E94B50883FD04C00E945C
:10282000B50882FFF8CF0E94A0110E94F512809196
:102830008C0290918D020297C9F48091CD02709222
:10284000CE02882309F471C01092CD026EEC72E0C2
:1028500080E190E00E94B2106DEC72E084E290E0C2
:102860000E94B2100E94A0110E94F51280918C0269
:1028700090918D02039709F05BC07092CE02109286
:10288000F2021092F10210928D0210928C026EEC04
:1028900072E080E190E00E94B2100E94C9100E9494
:1028A000490493E090935B07B0925807A0925707B2
:1028B00090925A078092590789EE91E00E94401148
:1028C00087E593E00E94CF088091CD02811124C05A
:1028D00044EF51E060E070E083E191E00E94580431
:1028E00064EF71E080E090E00E94FE0744EF51E069
:1028F00060E070E08AEF90E00E94580464EF71E0BD
:1029000080E090E00E94FE0748EE53E060E070E057
:1029100088EC90E00E94580468EE73E080E090E05C
:102920000E94FE070E94A01183CE7092CD028ECF2E
:10293000DF91CF911F910F91FF90EF90DF90CF909B
:10294000BF90AF909F908F907F906F905F904F90CF
:102950003F902F9008952F923F924F925F926F92E7
:102960007F928F929F92AF92BF92CF92DF92EF921F
:10297000FF920F931F93CF93DF930E94490470E05F
:1029800060E08FE090E00E94B20E87E593E00E9445
:10299000CF0868EE73E080E090E00E94FE07D0E090
:1029A000C0E024E6F22E0E9449048E010170112736
:1029B000B8018FE090E00E94B20E8091CD028111AB
:1029C0000DC0F09EC001F19E900D11244AE050E030
:1029D00060E070E084549D4F0E94580487E593E0C6
:1029E0000E94CF0864E170E080E090E00E94FE0762
:1029F0002196C431D105B9F6D0E0C0E0B12CA12CAC
:102A000012E6612E712C0AE6202E312C8FE6482E1C
:102A1000512C94E1D92E0E944904A1FA662760F94D
:102A200070E08FE090E08C1B9D0B0E94B20EC630D0
:102A3000D10598F4CC24C3947E018CE0E80EF11CFF
:102A400005E510E02CE030E0AE014B5A5F4F6CE042
:102A500070E085E590E00E944E0BCE010C970F9739
:102A6000E0F4CC24C394B1E1EB2EF12C05E510E0A9
:102A70002CE030E04AE550E06CE070E085E590E065
:102A80000E944E0B01E026E04C2F4C506CE070E0B1
:102A9000C3018C1B9D0B0E94330ACE014B970997F3
:102AA00008F00EC1CC24C394F1E1EF2EF12C05E522
:102AB00010E02CE030E04AE550E06CE070E085E5A5
:102AC00090E00E944E0B01E026E04C2F4C506CE051
:102AD00070E043018C1A9D0AC4010E94330AADE1E3
:102AE000EA2EF12C06E410E028E130E04BE450E05F
:102AF00068E170E086E490E00E944E0B01E026E081
:102B00004C2F4B5168E170E0C4010E94330A809160
:102B1000CD0281110DC0DA9CC001DB9C900D112407
:102B20004AE050E060E070E080559B4F0E945804FE
:102B300087E593E00E94CF088FEFA81AB80A239682
:102B40008DE2A816B10409F066CF60E971E080E07B
:102B500090E00E94FE0782E080935B07C0E8D0E02F
:102B600085E0382E9AE6492E512C0AE110E02EE538
:102B7000622E712C32E5832E912C46E4E42EF12C4A
:102B80005AE3C52ED12C6EE2A62EB12C8091CD0237
:102B900081110DC03C9EC0013D9E900D11244AE064
:102BA00050E060E070E08C579C4F0E9458040E94F7
:102BB000490466E170E0CE0102960E94720FC634AD
:102BC000D1050CF058C05092580740925707109307
:102BD0005A07009359078AE491E00E944011CA33D2
:102BE000D1050CF048C070925807609257071093B7
:102BF0005A070093590781EF91E00E944011CE32AD
:102C0000D105CCF5909258078092570710935A0738
:102C10000093590783EF91E00E944011C232D10521
:102C200054F5F0925807E092570710935A07009313
:102C3000590785EF91E00E944011C631D105DCF4BF
:102C4000D0925807C092570710935A07009359071C
:102C500082E691E00E944011CA30D10564F4B0923E
:102C60005807A092570710935A070093590781EF0E
:102C700091E00E94401187E593E00E94CF082197E0
:102C8000C130D10509F082CF6CE271E080E090E0C4
:102C90000E94FE070E94A011DF91CF911F910F911A
:102CA000FF90EF90DF90CF90BF90AF909F908F906C
:102CB0007F906F905F904F903F902F900C94F51203
:102CC000C432D10508F423CFCC24C39471E1E72E9C
:102CD000F12C89E790E08C1B9D0B8C012CE030E0FF
:102CE0004EE750E04C1B5D0B6CE070E00E944E0B19
:102CF00001E026E048E16CE070E043018C1A9D0A97
:102D0000C4010E94330AEDE1EE2EF12CC1018C1BAF
:102D10009D0B8C0128E130E0A2014C1B5D0B68E1AA
:102D200070E00E944E0B01E026E049E0EBCE2F92CE
:102D30003F924F925F926F927F928F929F92AF924B
:102D4000BF92CF92DF92EF92FF920F931F93CF9398
:102D5000DF93CDB7DEB72A970FB6F894DEBF0FBE6C
:102D6000CDBF0E9449040E94B50884FF0CC0809129
:102D7000B1029091B202893391052CF4019690939F
:102D8000B2028093B1020E94B50887FF0CC0809107
:102D9000B1029091B202181619062CF40197909383
:102DA000B2028093B1020E94B50883FD01C40E9463
:102DB000B50882FB882780F98093B0020E94B5088D
:102DC00083FF9CC00E94490483E080935B0725E059
:102DD00030E030935807209357078CE090E09093B1
:102DE0005A078093590787EF91E00E94401181E0D4
:102DF00080935B0785E090E0909358078093570796
:102E000083E290E090935A07809359078DEF91E009
:102E10000E944011E5E0F0E0F0935807E093570777
:102E20008CE290E090935A0780935907809190022A
:102E300090919102029721F482E192E00E94401168
:102E40008091900290919102019721F483E292E0A7
:102E50000E9440118091900290919102892B21F45F
:102E600083E392E00E94401184E490E0909358073D
:102E70008093570710925A071092590786E492E000
:102E80000E94401187E690E090935807809357077F
:102E900010925A071092590780919D0290919E02BC
:102EA0000E9470118091CD02811116C042E350E062
:102EB00060E070E084E893E00E94580464E670E00B
:102EC00080E090E00E94FE0748EC50E060E070E097
:102ED00084E893E00E94580487E593E00E94CF08BD
:102EE00064EF71E080E090E00E94FE070E94B50868
:102EF00087FD04C00E94B50884FFF8CF0E94B50882
:102F000082FF58C38091AE029091AF021816190645
:102F10000CF050C321E02093AD0201979093AF02D3
:102F20008093AE02E090B102F090B2022091AB0229
:102F30003091AC023A8329830E94AD2233E0E30E44
:102F4000F11CE981FA813496FA83E98325E0822E27
:102F5000912CA12CB12CA50194010E941B2348E0C7
:102F6000460F21E0B70189819A810E94AD0C0E9431
:102F7000AD22A50194010E941B2348E0460F21E0E9
:102F8000B70189819A810E94AD0C8091CD02811197
:102F90000FC00E94AD2228EE33E040E050E00E94D6
:102FA0001B23CB0142E350E060E070E00E94580434
:102FB0008FE9882E82E0982E27E932E03A83298330
:102FC00095E0292E312C11E05401F401C080D1800C
:102FD000E280F38020919D0230919E023C832B83FE
:102FE00020E030E040EA51ECC701B6010E94EB233B
:102FF00087FFE3C28B819C81019690939E02809310
:103000009D020E94AD2228E730E040E050E00E949F
:103010001B2369577F4F8F4F9F4F0E949A24F401C3
:1030200060837183828393830E94AD2229E330E021
:1030300040E050E00E941B23E981FA8171836083A4
:10304000F401C080D180E280F3802091AB02309106
:10305000AC023C832B83B901625F7F4F072E000CCB
:10306000880B990B0E949A249B01AC01C701B60101
:103070000E94EB2387FFB4C06B817C816F50710984
:10308000072E000C880B990B0E949A249B01AC011F
:10309000C701B6010E944A2518160CF0A1C0E981AB
:1030A000FA81808191812091B1023091B202821B1C
:1030B000930B07960A9708F093C08091AD02811197
:1030C0008FC08091900290919102009709F095C273
:1030D0000E944904F3E0F0935B0722E030E0309374
:1030E00058072093570730925A07209259078DE4CA
:1030F00092E00E94401110935B0782E090E0909371
:10310000580780935707ECE1F0E0F0935A07E093FB
:10311000590786E492E00E94401125E230E03093A6
:103120005807209357078CE190E090935A078093BB
:10313000590780919D0290919E020E947011E2E0D9
:10314000F0E0F0935807E093570720E330E0309326
:103150005A072093590785E592E00E94401180911B
:10316000CE02882359F020919D0230919E028091D9
:10317000F1029091F2028217930714F40E944D110C
:1031800087E593E00E94CF088091CD02811116C09F
:1031900044EF51E060E070E082EC91E00E9458045E
:1031A00064EF71E080E090E00E94FE074CED55E096
:1031B00060E070E08EE591E00E94580464EF71E0F9
:1031C00080E090E00E94FE070E94B50883FD04C0E5
:1031D0000E94B50882FFF8CF0E94D2120E94AB1461
:1031E000E981FA810190F081E02DFA87E987F4E026
:1031F0008F0E911CF50160817181828193810E9403
:1032000062242B0169857A856A5F7F4F01E021E0A6
:103210004FE0C2010E94330AE984FA84F5E0EF0E20
:10322000F11C21E041E0B701C2010E94330A920182
:103230002E5F3F4F3C832B8321E041E0B7018B8120
:103240009C810E94330AC20104969E838D8321E0F3
:1032500041E0B7010E94330AE984FA8494E0E90E60
:10326000F11CC201059621E042E0B7010E94330A39
:10327000A984BA84E3E0AE0EB11CC201079621E036
:1032800041E0B5010E94330AC201089621E046E000
:10329000B7010E94330A29853A852E5F3F4F388750
:1032A0002F83C2010E9622E041E06F8178850E9453
:1032B000330AC2010F9623E041E0B5010E94330AB0
:1032C000620133E0C30ED11C89859A85840D951D5A
:1032D00097FD4F9685FD03C201E021E041E069853D
:1032E0007A85C6010E94330A69857A856F5F7F4FB0
:1032F00021E041E08B819C810E94330A21E041E082
:103300006F817885C6010E94330A21E041E0B50152
:103310008D819E810E94330A89819A8102969A83C7
:103320008983EBEAF2E0E815F90509F04DCE8091CA
:103330009D0290919E0264E670E00E944F25C29724
:1033400071F50E94AD2226E930E040E050E00E9495
:103350001B2369577F4F70939602609395020E94DA
:10336000AD222AE330E040E050E00E941B2370933E
:103370009402609393028091CD02811110C044E1C8
:1033800050E060E070E084EF91E00E94580444E671
:1033900050E060E070E084E893E00E945804E09020
:1033A0009502F0909602FFEEEF16FFEFFF060CF489
:1033B0005BC0F7013197F0939602E0939502C090BD
:1033C0009302D0909402CF0162E070E00E944F25FA
:1033D000898346012FEF821A920A082F23E041E0E9
:1033E000B401CF010E94330A098121E041E0B40118
:1033F000C7010E94330A37013FEF631A730A09813C
:1034000021E041E0B601C3010E94330A570182E086
:10341000A80EB11C098121E041E0B401C5010E9460
:10342000330A098123E041E0B401C70103960E94F9
:10343000330A460194E0890E911C098121E041E0A4
:10344000B401C7010E94330AB6016B5F7F4F098147
:1034500021E041E0C3010E94330A098121E041E0FB
:10346000B401C5010E94330A8091AB029091AC0275
:103470002091950230919602AC01435F5F4F421755
:1034800053076CF10797281739074CF18091930285
:10349000909194022091B1023091B202821B930B61
:1034A00009960F97E0F48CEE9FEF9093960280932D
:1034B00095028091AE029091AF028C599F4F9093EC
:1034C000AF028093AE028091CD02811108C048E224
:1034D00050E060E070E080E293E00E94580484E4F1
:1034E00090E0909358078093570710925A071092D4
:1034F000590786E492E00E94401107E610E010931D
:1035000058070093570710925A0710925907809155
:103510009D0290919E020E9470118CE390E0909326
:10352000580780935707E8E3F0E0F0935A07E093D9
:10353000590783E892E00E944011109358070093C6
:10354000570728E330E030935A07209359078091BA
:10355000AE029091AF020E9470116091B102709121
:10356000B2028091AB029091AC020E946C1087E590
:1035700093E00E94CF088091B002809392022A9635
:103580000FB6F894DEBF0FBECDBFDF91CF911F9174
:103590000F91FF90EF90DF90CF90BF90AF909F90F2
:1035A0008F907F906F905F904F903F902F900895F5
:1035B00081E002CC1092AD02FBCC2B813C81B901A1
:1035C000330F880B990B0E949A2420E030E048ECDE
:1035D00052E40E94F0239B01AC01C701B6010E9496
:1035E0007E2320E030E040E85FE30E947E23F40188
:1035F000608371838283938323CD0197909391029B
:10360000809390020E9470120E94490433E030932C
:103610005B0730925807209257078CE090E0909318
:103620005A078093590788E692E00E944011109350
:103630005B073092580720925707E3E2F0E0F093DF
:103640005A07E093590781E792E00E9440113092B7
:103650005807209257072CE230E030935A07209306
:1036600059078DEF91E00E94401187E593E00E9499
:10367000CF088091CD02811123C080E293E09C832A
:103680008B834EE150E060E070E08B819C810E9472
:1036900058046EE170E080E090E00E94FE07EB814C
:1036A000FC81EB54F109FC83EB83E93AF14049F7E3
:1036B00044EF51E060E070E08EE591E00E94580434
:1036C00064EF71E080E090E00E94FE070E94B50880
:1036D00087FD86CD0E94B50884FFF8CF81CDC20159
:1036E000019601E021E041E0B7010E94330A21E0A8
:1036F00041E0B701C6010ECE1F920F920FB60F9296
:1037000011248F939F938091E1009091E100937F2A
:103710009093E10083FF0FC01092E90091E0909335
:10372000EB001092EC0092E39093ED001092E40213
:1037300098E09093F00082FF22C093E09093E9001C
:103740009091F200992319F09AE39093E8009091F8
:10375000D502992341F09091D50291509093D502D2
:10376000911101C05D9A9091E302992341F09091EB
:10377000E30291509093E302911101C0289A84FFD3
:1037800018C08091E2008E7E81608093E20080917B
:10379000E1008F7E8093E1008091D6028E7E806171
:1037A0008093D6029F918F910F900FBE0F901F9024
:1037B000189580FFF7CF8091E2008E7E8061809324
:1037C000E2008091E1008E7E8093E1008091D6023C
:1037D0008E7E8160E5CF1F920F920FB60F9211245B
:1037E000CF92DF92EF92FF920F931F932F933F930D
:1037F0004F935F936F937F938F939F93AF93BF93F9
:10380000EF93FF93CF93DF93CDB7DEB76C97DEBF17
:10381000CDBF1092E9008091E80083FF25C068E0E9
:10382000CE0145960E944F0682EF8093E8008D8975
:1038300087FF39C09091E80090FFFCCF982F9076D9
:1038400009F034C19E894F89588D2F89F88C9111C8
:1038500031C0803861F58091D4028093F1001092DC
:10386000F1008EEF8093E8006C960FB6F894DEBFFF
:103870000FBECDBFDF91CF91FF91EF91BF91AF917F
:103880009F918F917F916F915F914F913F912F9178
:103890001F910F91FF90EF90DF90CF900F900FBE90
:1038A0000F901F9018959EEF9093E800C7CF10924D
:1038B000F100D5CF913059F48111D3CF413051056A
:1038C00081F68091D4028D7F8093D402CACF933049
:1038D00049F48111C6CF4130510519F68091D402C7
:1038E0008260F2CF953041F48091E80080FFFCCFF8
:1038F00020682093E300B5CF963009F0A9C00B8D66
:103900001C8D22E01092E9001092D2021092D10296
:10391000F2122EC01092D0021092CF020E941E0608
:103920001F8299E09983FA8291E09E8390EA9887BA
:103930009AEF99872091D1023091D202275F3F4FB1
:103940003C832B838D831092E9001092D202109257
:10395000D1021093D0020093CF0249E050E0BE01A3
:103960006F5F7F4F80E00E94F8050E941E0679CFAE
:103970001093D0020093CF020E940205DC01129640
:103980000D911C910115110509F451C1D801ED915A
:10399000FC910480F581E02DBE016B5E7F4FC80174
:1039A0000995009709F03EC1F80100851185EACF1D
:1039B000F3E0FF120EC08F89882309F440C08230E3
:1039C00061F440E860E18DED97E00E94C50581114A
:1039D00048CF81E28093EB0047CF813029F440E863
:1039E0006BE081ED97E0F1CF833099F70E940205FB
:1039F000DC011296ED90FC908E010F5F1F4F680165
:103A0000E114F10479F0D701ED91FC910680F78182
:103A1000E02DB801C7010995080F111DF701E084D9
:103A2000F184EECFD8011C92F60101900020E9F755
:103A30003197BF016C197D0940E0C601C6CF6BEB21
:103A400077E0FB01449150E080E80E94F80509CF3F
:103A5000973009F4BECF983021F481E08093F100D3
:103A600000CF993009F0FDCE837009F0B2CFE1E1CB
:103A7000F1E081E031E096E32191222371F080931F
:103A8000E9003093EB00DF0111972C912093EC00BB
:103A90009093ED008F5F873079F78EE78093EA008F
:103AA0001092EA008F898093E402DBCE8B8D9C8D8F
:103AB0001092E9001092D2021092D1029093D0029B
:103AC0008093CF02898D811192C08E899D89913A10
:103AD00049F4813209F07DCF47E050E064E071E0C5
:103AE00080E0B3CF913209F074CF833269F48F89CB
:103AF000988DB0E0A0E08093000190930101A09325
:103B00000201B0930301ADCE803269F48091E800E8
:103B100082FFFCCF67E084E091E00E944F068BEFCC
:103B20008093E8009ECE823209F09BCE8F898093ED
:103B30000B01EEEFFFE7859194918B3F9C4D51F186
:103B4000E0E0F8E08091040190910501A091060168
:103B5000B0910701803B9440A105B105F1F480913B
:103B60000B0180FD1AC0EE3F8AE0F80789F587E770
:103B700097E791838083809160008093D30288E1EE
:103B80009BE00FB6F894A895809360000FBE9093C9
:103B9000600067CEEEEFFAE0D5CF80819181873764
:103BA000974709F05ECEA895809160008861809368
:103BB00060008091D30280936000EE3F2AE0F2071C
:103BC00089F08091FE0A9091FF0A9183808349CE0B
:103BD000808191818737980751F29093FF0A8093F3
:103BE000FE0AC5CF1092FF0A1092FE0A3ACE0E943A
:103BF0000205DC0112960D911C910115110509F4C5
:103C0000E8CED801ED91FC910190F081E02DBE014C
:103C10006B5E7F4FC8010995811123CEF8010085A5
:103C20001185EBCF181619060CF41BCED2CEF1E09D
:103C3000FF12BECE6FEB77E004CF1F920F920FB64C
:103C40000F9211242F933F938F939F93AF93BF9322
:103C50008091BD029091BE02A091BF02B091C002BE
:103C60003091BC0223E0230F2D3758F50196A11D9A
:103C7000B11D2093BC028093BD029093BE02A0931D
:103C8000BF02B093C0028091C1029091C202A09184
:103C9000C302B091C4020196A11DB11D8093C1025F
:103CA0009093C202A093C302B093C402BF91AF919C
:103CB0009F918F913F912F910F900FBE0F901F906A
:103CC000189526E8230F0296A11DB11DD2CF1F9291
:103CD0000F920FB60F9211242F933F934F935F9340
:103CE0006F937F938F939F93AF93BF93EF93FF93C4
:103CF0008091B902882349F08091E502E091E602C3
:103D0000F091E7029081892780838091C502882302
:103D100009F456C08091B5029091B602A091B70205
:103D2000B091B802892B8A2B8B2B09F449C0809162
:103D3000B5029091B602A091B702B091B802019776
:103D4000A109B1098093B5029093B602A093B7027E
:103D5000B093B802892B8A2B8B2B91F5E091B3029B
:103D6000F091B402BF016F5F7F4F7093B402609314
:103D7000B3022491922F907F822F8F70903819F484
:103D80000E945009EBCF903981F43296F093B4023F
:103D9000E093B302FB0164919091EB028917F0F676
:103DA00067FDDCCF0E94DF08D9CF903E29F4109246
:103DB000B4021092B302D2CF903F99F41092C50290
:103DC000FF91EF91BF91AF919F918F917F916F91F3
:103DD0005F914F913F912F910F900FBE0F901F90C9
:103DE000189597FDBBCF3296F093B402E093B302DF
:103DF000FB016491A091BA02B091BB02322F262F31
:103E00000E946F236C507E4F8F4F9F4F28EE33E000
:103E100040E050E00E944D232093B5023093B6025B
:103E20004093B7025093B8028091B5029091B602C8
:103E3000A091B702B091B802892B8A2B8B2B09F085
:103E4000BFCF81E090E0A0E0B0E08093B502909316
:103E5000B602A093B702B093B802B2CF1F920F92EE
:103E60000FB60F9211248F939F93AF93BF93EF934D
:103E7000FF938091F002882309F452C08091EC02F4
:103E80009091ED02A091EE02B091EF02892B8A2B66
:103E90008B2BA1F19091E802E091E902F091EA0206
:103EA0008081892780838091EC029091ED02A0911E
:103EB000EE02B091EF02181619061A061B069CF4C2
:103EC0008091EC029091ED02A091EE02B091EF0290
:103ED0000197A109B1098093EC029093ED02A093A0
:103EE000EE02B093EF02FF91EF91BF91AF919F91DE
:103EF0008F910F900FBE0F901F9018951092F002A7
:103F000080916F008D7F80936F008091E802E09137
:103F1000E902F091EA029081809589238083E3CFC2
:103F20009091E802E091E902F091EA02808189270C
:103F3000F5CFE3EFF2E01382128288EE93E0A0E087
:103F4000B0E084839583A683B7838BE191E091836E
:103F500080838FEF9FEF95878487E3E4F3E01382FC
:103F600012828DE291E0918380838CE3868380E1ED
:103F700081871086178216861786108A118A128A00
:103F8000109258071092570710925A07109259072B
:103F900081E080935B070895CF93DF9300D01F9259
:103FA000CDB7DEB7789484B5826084BD84B5816076
:103FB00084BD85B5826085BD85B5816085BD8091F4
:103FC0006E00816080936E0010928100809181006C
:103FD0008260809381008091810081608093810064
:103FE0008091800081608093800080919100826048
:103FF00080939100809191008160809391008091E5
:1040000090008160809390008091C10084608093D3
:10401000C1008091C10082608093C1008091C10085
:1040200081608093C1008091C30081608093C30050
:104030008091C00082608093C0008091C200816046
:104040008093C20080917A00846080937A0080918E
:104050007A00826080937A0080917A0081608093F8
:104060007A0080917A00806880937A001092E4024E
:104070001092D4021092D6028091D7008160809372
:10408000D70080EA8093D80089B5806189BD89B561
:10409000826089BD09B400FEFDCF61E070E080E080
:1040A00090E00E94FE078091D8008F7C8061809311
:1040B000D8008091E000807F8093E0008091E10053
:1040C0008E7E8093E1008DE08093E200559A209AE5
:1040D0001FB7F8948091C602811127C0ECE2F8E086
:1040E0008491EFEFF7E09491E82FF0E0EE0FFF1FDF
:1040F000E55BF84FA591B491EC91E92321F461E0DF
:1041000081E10E94890661E081E10E94FA068CB596
:1041100080618CBD8CB580648CBD61E08FE00E94B5
:10412000FA0661E080E10E94FA068091C6028F5F84
:104130008093C6021FBF06E617E0B801F80184911C
:104140006F5F7F4F0E5F1F4FFB016491882319F053
:104150000E94FA06F2CF61E086E00E94890661E0E3
:1041600070E080E090E00E94FE0760E086E00E9440
:1041700089066AE070E080E090E00E94FE0761E05E
:1041800086E00E948906E7E2F8E0E491F0E0EE0FB5
:10419000FF1FE35FF74F859194919093CC0280933A
:1041A000CB02EAEFF7E0E491E093CA02EFE1F8E036
:1041B000E491F0E0EE0FFF1FE35FF74F85919491DC
:1041C0009093C9028093C802E2EFF7E0E491E09394
:1041D000C7028CB58C7F8CBD8DB581608DBDE091A3
:1041E000CB02F091CC0290818091CA02982B9083EF
:1041F000A091C802B091C9022C919091C7029095EC
:1042000092239C9390818095892380838EE090E017
:1042100026E637E0019759F0F901E81BF90BE49124
:10422000EEBD00000DB407FEFDCF4EB5F3CFE0911B
:10423000C802F091C90280819091C702892B8083C6
:10424000E091CB02F091CC0290818091CA028095DE
:1042500089238083809164008160809364008091D1
:104260006400826080936400809164008068809321
:104270006400809164008064809364008091650094
:104280008160809365000E94B50887FF1AC080E0B6
:1042900094E01EBC00000DB407FEFDCF2EB50197C3
:1042A000C1F770E060E08AE00E94360770E060E0ED
:1042B0008BE00E94360770E060E089E00E943607DC
:1042C000FFCF0EEE1FEFE8E0AE2EB12CB801695122
:1042D0007F4F8AE00E9436076FEF70E08BE00E940C
:1042E00036076FEF70E089E00E9436070E944904AC
:1042F000302EF0EF0F170CF472C0980117FF04C0B6
:1043000022273327201B310B27703327C80117FDC5
:10431000079673E0959587957A95E1F717FF05C0A5
:104320000197A501421B530B9A01AC015695542FDE
:104330004427579547954D5B5C4FB0E0A0E02501C1
:10434000421A530A8F3F6FEF96070CF43FC07A0171
:1043500070E060E0FD01E556F94F4F013A01F0E8E9
:104360006F0E711C8F3F980779F0F401E60FF71F6D
:10437000E491F0E06F01022E01C0CC0C0A94EAF740
:10438000F701D0A4CD28C0A621153105B9F0F4015C
:10439000E60FF71F24906301C60ED71EE22DF0E052
:1043A000042C02C0F595E7950A94E2F7FB83EA83B3
:1043B000F60120A4FA812F2AF60120A66F5F7F4F15
:1043C000FFEFEF1AFF0A6835710561F60196A85AEA
:1043D000BF4F40585F4FA03BB10509F0B3CF87E511
:1043E00093E00E94CF086BE170E080E090E00E94D3
:1043F000FE0740EF341206C06AEF70E080E090E004
:104400000E94FE070F5F1F4F0931110509F05ECFB3
:104410006EEE72E080E090E00E94FE076FEF70E0C9
:104420008AE00E9436076FEF70E08BE00E9436074B
:104430006FEF70E089E00E94360785E00E94730903
:104440008DE00E9473091092C50282E090E00E9404
:104450000523882351F080916400877F8093640056
:1044600080916500877F809365008CE3809349038A
:1044700080E180934C0387E593E00E94CF08BE0162
:104480006F5F7F4F80E190E00E94E8108981809308
:10449000CE02882351F0BE016F5F7F4F84E290E02F
:1044A0000E94E81089818093CD020E94AB1400E045
:1044B00010E00E94971601151105D9F30E94000023
:1044C000F8CF8F929F92AF92BF92CF92DF92EF92EE
:1044D000FF92CF93DF93EC01688179818A819B8180
:1044E000611571058105910521F464E279ED8BE593
:1044F00097E02DE133EF41E050E00E941B2349019A
:104500005A019B01AC01A7EAB1E40E943A236B0176
:104510007C01ACEEB4EFA50194010E944823C60EC5
:10452000D71EE81EF91EF7FE06C081E0C81AD108A2
:10453000E10880E8F80AC882D982EA82FB82C701D2
:10454000B6019F77DF91CF91FF90EF90DF90CF90F2
:10455000BF90AF909F908F9008958F929F92AF924F
:10456000BF92CF92DF92EF92FF9260910C01709117
:104570000D0180910E0190910F016115710581056A
:10458000910521F464E279ED8BE597E02DE133EFBD
:1045900041E050E00E941B2349015A019B01AC01FC
:1045A000A7EAB1E40E943A236B017C01ACEEB4EFC0
:1045B000A50194010E944823C60ED71EE81EF91ECD
:1045C000F7FE06C081E0C81AD108E10880E8F80AC1
:1045D000C0920C01D0920D01E0920E01F0920F01F9
:1045E000C701B6019F77FF90EF90DF90CF90BF900B
:1045F000AF909F908F90089560930C0170930D0180
:1046000080930E0190930F010895F999FECF92BD0A
:1046100081BDF89A992780B50895262FF999FECF84
:104620001FBA92BD81BD20BD0FB6F894FA9AF99ACF
:104630000FBE01960895052E97FB1EF400940E946C
:10464000322357FD07D00E944D2307FC03D04EF4C0
:104650000C94322350954095309521953F4F4F4F04
:104660005F4F089590958095709561957F4F8F4F1E
:104670009F4F08950E946F23A59F900DB49F900DAA
:10468000A49F800D911D11240895B7FF0C943A2327
:104690000E943A23821B930B0895A1E21A2EAA1BB3
:1046A000BB1BFD010DC0AA1FBB1FEE1FFF1FA217E2
:1046B000B307E407F50720F0A21BB30BE40BF50BDF
:1046C000661F771F881F991F1A9469F76095709568
:1046D000809590959B01AC01BD01CF010895A29FEB
:1046E000B001B39FC001A39F700D811D1124911DC6
:1046F000B29F700D811D1124911D08955058BB2744
:10470000AA270E9496230C9410250E94022538F0B7
:104710000E94092520F039F49F3F19F426F40C94E7
:10472000FF240EF4E095E7FB0C94F924E92F0E9496
:10473000212558F3BA17620773078407950720F0FD
:1047400079F4A6F50C9443250EF4E0950B2EBA2FC0
:10475000A02D0B01B90190010C01CA01A001112487
:10476000FF27591B99F0593F50F4503E68F11A1633
:10477000F040A22F232F342F4427585FF3CF4695C4
:1047800037952795A795F0405395C9F77EF41F16E6
:10479000BA0B620B730B840BBAF09150A1F0FF0FB0
:1047A000BB1F661F771F881FC2F70EC0BA0F621F9C
:1047B000731F841F48F4879577956795B795F7958C
:1047C0009E3F08F0B0CF9395880F08F09927EE0F21
:1047D0009795879508950E94D52408F481E008955F
:1047E0000E9404240C9410250E94092558F00E9470
:1047F000022540F029F45F3F29F00C94F92451116F
:104800000C9444250C94FF240E94212568F39923DD
:10481000B1F3552391F3951B550BBB27AA276217BC
:104820007307840738F09F5F5F4F220F331F441FC9
:10483000AA1FA9F335D00E2E3AF0E0E832D09150FD
:104840005040E695001CCAF72BD0FE2F29D0660FEA
:10485000771F881FBB1F261737074807AB07B0E82D
:1048600009F0BB0B802DBF01FF2793585F4F3AF033
:104870009E3F510578F00C94F9240C9444255F3F39
:10488000E4F3983ED4F3869577956795B795F795B9
:104890009F5FC9F7880F911D9695879597F90895A1
:1048A000E1E0660F771F881FBB1F6217730784073D
:1048B000BA0720F0621B730B840BBA0BEE1F88F74C
:1048C000E09508950E9469246894B1110C944425E0
:1048D00008950E94292588F09F5798F0B92F9927AD
:1048E000B751B0F0E1F0660F771F881F991F1AF0DB
:1048F000BA95C9F714C0B13091F00E944325B1E0D8
:1049000008950C944325672F782F8827B85F39F0D6
:10491000B93FCCF3869577956795B395D9F73EF473
:1049200090958095709561957F4F8F4F9F4F08951B
:10493000E89409C097FB3EF4909580957095619539
:104940007F4F8F4F9F4F9923A9F0F92F96E9BB27EF
:104950009395F695879577956795B795F111F8CF6B
:10496000FAF4BB0F11F460FF1BC06F5F7F4F8F4FD6
:104970009F4F16C0882311F096E911C0772321F0CC
:104980009EE8872F762F05C0662371F096E8862F64
:1049900070E060E02AF09A95660F771F881FDAF7BB
:1049A000880F9695879597F90895990F0008550FE8
:1049B000AA0BE0E8FEEF16161706E807F907C0F0A5
:1049C00012161306E407F50798F0621B730B840BAD
:1049D000950B39F40A2661F0232B242B252B21F487
:1049E00008950A2609F4A140A6958FEF811D811D27
:1049F000089597F99F6780E870E060E008959FEF61
:104A000080EC089500240A94161617061806090665
:104A1000089500240A941216130614060506089534
:104A2000092E0394000C11F4882352F0BB0F40F4BC
:104A3000BF2B11F460FF04C06F5F7F4F8F4F9F4FFC
:104A4000089557FD9058440F551F59F05F3F71F07E
:104A50004795880F97FB991F61F09F3F79F08795E5
:104A60000895121613061406551FF2CF4695F1DF6E
:104A700008C0161617061806991FF1CF86957105FE
:104A8000610508940895E894BB2766277727CB0132
:104A900097F908950E94D52408F48FEF089597FBA5
:104AA000072E16F4009407D077FD09D00E946925DF
:104AB00007FC05D03EF4909581959F4F0895709521
:104AC00061957F4F0895EE0FFF1F0590F491E02D43
:104AD0000994AA1BBB1B51E107C0AA1FBB1FA61745
:104AE000B70710F0A61BB70B881F991F5A95A9F797
:104AF00080959095BC01CD01089581E090E0F894F7
:084B00000C948225F894FFCF0C
:104B0800FFFFFFFF00E100000000000001000000BF
:104B180000C1808100000000000000160530083741
:104B2800052C057D053B05590500000000950D5C29
:104B380006AF0EAE0E4E657720486967682053634E
:104B48006F72652100414E424F41540053746172A7
:104B580074210043726564697473004D7574653A15
:104B6800204F4E004D7574653A204F464600436C01
:104B78006561722048692053636F72650048492057
:104B880053434F52453A00416C6C206F662074685D
:104B980069732077617320646F6E650062792046BF
:104BA800414E424F41542C20616B61005269636849
:104BB8006965204461766964736F6E2E004C656187
:104BC800726E206D6F7265206174206D7920736933
:104BD80074653A00202066616E626F61742E636F9F
:104BE800005468616E6B73210044454C455445443C
:104BF8000041004F00420050415553450055702078
:104C08006F7220446F776E20746F20726573756DB4
:104C18006500596F752068617665203220626F6182
:104C2800747300596F752068617665203120626F52
:104C38006174004F6E20796F7572206C61737420F7
:104C4800626F6174210053636F72653A0055205298
:104C5800204445440041206F72204220746F207226
:104C680065737461727421002D3120424F415421C3
:104C7800004761746F7220646F6E652065742079D7
:0C4C8800612100536869656C643A00000B
:00000001FF
