:100000000C94AE0A0C94D60A0C94D60A0C94D60A18
:100010000C94D60A0C94D60A0C94D60A0C94D60AE0
:100020000C94D60A0C94D60A0C94B6190C94251A82
:100030000C94D60A0C94D60A0C94D60A0C94D60AC0
:100040000C94D60A0C94D60A0C94D60A0C94D60AB0
:100050000C94D60A0C94D60A0C94D60A0C94571C0D
:100060000C94D60A0C94D60A0C94D60A0C94D60A90
:100070000C94D60A0C94D60A0C94D60A0C94D60A80
:100080000C94A11C0C94D60A0C94D60A0C94D60A93
:100090000C94D60A0C94D60A0C94D60A0C94D60A60
:1000A0000C94D60A0C94D60A0C94D60A0808FFC3FE
:1000B0001CEEE61CC3FF0808C3DBBDADA599DBDB66
:1000C0000808FFC3386F6738C3FF7068616E7461DA
:1000D000736D616C206372656174757265732E0057
:1000E0007368656C6C732074686174206F6E6C79D2
:1000F000206861726D0073686F6F747320616E7435
:1001000069207068616E7461736D00636F6E7461F5
:10011000696E6D656E742E205468652074616E6B17
:100120000068656C7020776974680077696C6C2072
:100130006265206465706C6F79656420746F00700F
:1001400068616E7461736D2074616E6B20756E6989
:1001500074006E6174696F6E616C206775617264A2
:1001600020616E7469006F6E207468656972206F1B
:10017000776E2E205468650063616E277420636F6C
:100180006E7461696E20486172616D6265004966D6
:1001900020746865207A6F6F206B65657065727377
:1001A000007068616E7461736D2062756C6C65744B
:1001B000732E006B6565706572277320616E7469BC
:1001C000006172652076756C6E657261626C652087
:1001D000746F207468650061667465726C69666529
:1001E0002E2054686520736E616B65730077696CAF
:1001F0006C206C6F736520616E00746F7563686549
:100200007320486172616D626520686500486172A3
:10021000616D62652E2049662074686520736E6189
:100220006B650072656C656E746C6573736C7920B8
:1002300068756E740077696C6C20617070656172AE
:1002400020616E640041207068616E7461736D613D
:100250006C20736E616B650062616C616E6365201A
:100260006F66206E61747572652E007072657365BD
:100270006E636520757073657473207468650048DB
:100280006172616D6265277320636F6E74696E754C
:1002900065640031303020706F696E74732E0061B8
:1002A000667465726C69666520666F722065766536
:1002B000727900486172616D6265206765747320B0
:1002C000616E206578747261006265206170706C87
:1002D0006965642E2052656D656D62657200726598
:1002E0006D61696E696E67207365636F6E642077F8
:1002F000696C6C00626F6E757320706F696E74202C
:10030000706572007468616E203135207365636FAB
:100310006E6473206100636F6D706C65746564203A
:10032000696E206C65737300496620612073746187
:10033000676520697300746F20636F6D706C6574FE
:100340006520612073746167652E006D616B6520A7
:10035000697420746F2074686520737461697273A6
:10036000006170706561722E20486172616D626516
:10037000206D757374006E657874207374616765A1
:100380002077696C6C00737461697273206C6561AD
:1003900064696E6720746F207468650061207374EF
:1003A0006167652061726520636F6E766572746542
:1003B00064004F6E636520616C6C20746F757269A8
:1003C000737473206F6E007068616E7461736D6119
:1003D0006C206372656174757265732E0074686158
:1003E00074206F6E6C79206861726D00616E746943
:1003F000207068616E7461736D2062756C6C6574D9
:10040000730067756E7320617265206C6F6164653F
:1004100064207769746800746F7563682E2054686F
:1004200065206B656570657227730066726F6D205D
:10043000486172616D6265277320637572736564CC
:1004400000746861742070726F74656374732074D3
:1004500068656D007068616E7461736D20726169AA
:100460006E206765617200546865792077656172F6
:1004700020616E74690070726570617265642066D7
:100480006F7220486172616D62652E00546865204C
:100490007A6F6F206B656570657273207765726522
:1004A00000666F7220657665727920313030207079
:1004B0006F696E74732E00616E20657874726120AE
:1004C00061667465726C69666500706F696E7473DD
:1004D0002E20486172616D626520676574730063E8
:1004E0006F6E76657274656420697320776F7274BD
:1004F000682033004561636820746F757269737496
:1005000000486172616D6265277320526576656E81
:100510006765210063616E20746F20657861637484
:10052000006D616E7920746F7572697374732061E8
:100530007320796F75006576616375617465642EEB
:1005400020436F6E7665727420617300746F7572EC
:1005500069737473207374696C6C206E65656400D4
:10056000636C6F73652C20627574206D616E790009
:1005700063617573656420746865207A6F6F207499
:100580006F00486172616D626527732070726573D8
:10059000656E63650062756C6C65742E00746861CD
:1005A0006E2061207370656564696E670074656DA7
:1005B000706F726172696C79206661737465720024
:1005C000626F6F7374207768696368206D616B6513
:1005D000732068696D007769746820612073757095
:1005E00065722073706565640068617320616C7367
:1005F0006F206265656E20696D627565640070725A
:100600006F746563742068696D2E20486172616D36
:1006100062650077696C6C20646F2074686569722C
:10062000206265737420746F00676F72696C6C610F
:10063000207A6F6D62696573207468617400746FED
:10064000756368657320746F206D7574616E7400D6
:10065000636F6E766572742074686F736520686569
:1006600000776974682074686520706F7765722000
:10067000746F00486172616D6265206861732072F9
:10068000657475726E65640043696E63696E6E6150
:100690007469205A6F6F2E00677261766520746FDF
:1006A000206861756E742074686500726574757277
:1006B0006E65642066726F6D2074686500412070FD
:1006C00068616E7461736D616C20676F72696C6CC8
:1006D0006100596F7520706C6179206173204861E9
:1006E00072616D62652E000808DBDB99ADA5BDDB8C
:1006F000C36861746368656420746F20656E6162AD
:100700006C652E2E2E0074686520776F726C6420E5
:100710006120706C616E2077617300496E206120EA
:1007200066617220636F726E6572206F66004F742F
:100730006865727320746F6F6B20616374696F6E8C
:100740002100756E666169722E00536F6D652074AD
:10075000686F75676874206974207761730000643E
:100760006965642E0074686520646179204861724F
:10077000616D62650045766572796F6E65206C6F9C
:1007800073742061206865726F0008087FF5D1FDE1
:10079000DDF1F57F08087FF5F1DDFDD1F57F410042
:1007A000320083003200060132000B0232001704CF
:1007B00032000B023200170432002D0832005A10AA
:1007C00032002D0832005A1032002D08190017048B
:1007D00019000B021900060119008300190000809E
:1007E00008083E75D1DDDDD1753E08081C72F3BBEB
:1007F000BBF3721C08081C72D3BBBBF3721C080845
:100800001C72F39B9BF3721C0808047EEEBFAFBF03
:10081000FE04080804FEBFAFBFEE7E04830019008B
:10082000930019004A0119000080080822538B8A9E
:100830008A92924C08084C92928A8A8B53222D08F5
:100840001900B807190049071900E00619007D06CC
:10085000190020061900C80519007505190027059B
:100860001900DD041900970419004100640000809C
:100870000000FFFF0100FFFF010000000100010078
:1008800000000100FFFF0100FFFF0000FFFFFFFF6E
:10089000000000000808AAAAAAAAAAA8A08000002E
:1008A0000000003E5B4F5B3E3E6B4F6B3E1C3E7C50
:1008B0003E1C183C7E3C181C577D571C1C5E7F5EFE
:1008C0001C00183C1800FFE7C3E7FF0018241800BD
:1008D000FFE7DBE7FF30483A060E26297929264054
:1008E0007F050507407F05253F5A3CE73C5A7F3E80
:1008F0001C1C08081C1C3E7F14227F22145F5F0012
:100900005F5F06097F017F006689956A60606060AD
:100910006094A2FFA29408047E040810207E201098
:1009200008082A1C08081C2A08081E101010100CA1
:100930001E0C1E0C30383E3830060E3E0E060000EF
:1009400000000000005F00000007000700147F1493
:100950007F14242A7F2A1223130864623649562002
:10096000500008070300001C2241000041221C0027
:100970002A1C7F1C2A08083E0808008070300008E6
:1009800008080808000060600020100804023E51BA
:1009900049453E00427F400072494949462141494C
:1009A0004D331814127F1027454545393C4A4949B3
:1009B0003141211109073649494936464949291E1D
:1009C000000014000000403400000008142241140C
:1009D00014141414004122140802015909063E415E
:1009E0005D594E7C1211127C7F494949363E414186
:1009F00041227F4141413E7F494949417F090909DF
:100A0000013E414151737F0808087F00417F41004A
:100A10002040413F017F081422417F404040407FF9
:100A2000021C027F7F0408107F3E4141413E7F0946
:100A30000909063E4151215E7F0919294626494987
:100A4000493203017F01033F4040403F1F204020C7
:100A50001F3F4038403F63140814630304780403C5
:100A60006159494D43007F41414102040810200073
:100A70004141417F040201020440404040400003E4
:100A800007080020545478407F28444438384444B0
:100A90004428384444287F385454541800087E09A8
:100AA0000218A4A49C787F0804047800447D4000C8
:100AB0002040403D007F1028440000417F40007CE2
:100AC000047804787C080404783844444438FC18DA
:100AD00024241818242418FC7C08040408485454BE
:100AE000542404043F44243C4040207C1C204020EB
:100AF0001C3C4030403C44281028444C9090907C52
:100B00004464544C44000836410000007700000063
:100B10004136080002010204023C2623263C1EA1A5
:100B2000A161123A4040207A385454555921555504
:100B300079412154547841215554784020545579B5
:100B4000400C1E5272123955555559395454545946
:100B500039555454580000457C410002457D4200FF
:100B600001457C40F0292429F0F0282528F07C5408
:100B70005545002054547C547C0A097F4932494928
:100B800049323248484832324A4848303A41412195
:100B90007A3A42402078009DA0A07D3944444439EF
:100BA0003D4040403D3C24FF2424487E4943662B81
:100BB0002FFC2F2BFF0929F620C0887E0903205423
:100BC0005479410000447D413048484A3238404021
:100BD000227A007A0A0A727D0D19317D2629292F81
:100BE00028262929292630484D4020380808080899
:100BF00008080808382F10C8ACBA2F102834FA009B
:100C0000007B000008142A142222142A14089500DC
:100C1000220095AA005500AAAA55AA55AA000000CC
:100C2000FF00101010FF00141414FF001010FF003C
:100C3000FF1010F010F0141414FC001414F700FF4F
:100C40000000FF00FF1414F404FC141417101F100C
:100C5000101F101F1414141F00101010F0000000BB
:100C6000001F101010101F10101010F010000000C6
:100C7000FF101010101010101010FF10000000FFD7
:100C8000140000FF00FF00001F10170000FC04F418
:100C900014141710171414F404F40000FF00F714D0
:100CA000141414141414F700F71414141714101057
:100CB0001F101F141414F4141010F010F000001F73
:100CC000101F0000001F14000000FC140000F010B2
:100CD000F01010FF10FF141414FF141010101F0058
:100CE000000000F010FFFFFFFFFFF0F0F0F0F0FF5A
:100CF000FFFF0000000000FFFF0F0F0F0F0F384431
:100D00004438447C2A2A3E147E02020606027E02F1
:100D10007E0263554941633844443C04407E201EB2
:100D20002006027E020299A5E7A5991C2A492A1CE1
:100D30004C7201724C304A4D4D303048784830BCCE
:100D4000625A463D3E494949007E0101017E2A2AF8
:100D50002A2A2A44445F444440514A444040444A79
:100D600051400000FF0103E080FF000008086B6BAA
:100D7000083612362436060F090F06000018180030
:100D800000001010003040FF0101001F01011E0093
:100D9000191D1712003C3C3C3C0000000000D5F03F
:100DA0008D14A1C881CFD9F1AF20005200C8000036
:100DB000006400880164000000C800EE01640000C7
:100DC00000C8005200C80000006400EE01C8000026
:100DD000006400880164000000C800520064000044
:100DE0000032005200640000003200520064000033
:100DF0000032004A0132000000640052006400002A
:100E000000320052006400000032005200C80000AE
:100E1000006400880164000000C800EE0164000066
:100E200000C8008300C800000064004A016400009C
:100E300000C800D20164000000C8008300C80000A0
:100E40000064004A0164000000C800D20164000090
:100E500000C800410064000000320041006400004E
:100E60000032004100640000003200060132000040
:100E70000064004100640000003200410064000092
:100E80000032008300C800000064004A01640000D2
:100E900000C800D20164000000C80001806F0F1973
:100EA00000DD04190055043200B80719006E02195C
:100EB000002A023200DC0319003701190015013243
:100EC000000080A40396004B0296002D0896007542
:100ED000059600A40396000080490719004B0219EB
:100EE000000B023200A4031900260119000601328A
:100EF00000D20119009300190083003200750032FE
:100F0000003A0032000080A40332004B0232004954
:100F100007320000801602030100010000000000FB
:100F20000000000000000000030101000147414DE6
:100F300045204F5645522100B8019600EE0196001B
:100F40000B029600B801960093022C011003960044
:100F500070039600008054696D6520426F6E757352
:100F60003A20000B024B0093024B0010034B0093FE
:100F7000024B0010034B0017044B00008053636FBB
:100F800072653A200041667465726C697665733AE1
:100F9000200053746167653A2000486967682053F0
:100FA000636F72653A200048656C7000537461721B
:100FB000740A004F66660A004F6E0A00536F756E22
:100FC000643A008040FF0101019F9F010101FFFF82
:100FD0001F0181F981011FFFFF01010199990101A1
:100FE00043FFFF1F0181F981011FFFFF010101E1A3
:100FF000073F07E1010101FF010101999901212347
:10100000FF0101019999FFF1F1F9FFC381811901F4
:101010002163FFFFFFFF7F7F6FB7BF5FD7C7D7D7C2
:10102000CBCFCFE1E1E1E1C3D3F3E7EFCFEF47C7A8
:10103000C4C7C3B7FFBFFFFFFFFFFFFFFFFFFFFFF7
:10104000FFFFFFFFFFFF1010109F9F101030FF13D6
:1010500010109C9CFC101013FFF0F0101F1FF010DC
:10106000101F9390F0FC1C1C1070F31F1010F03F29
:101070001010909F103030FF1010109393F0F0F884
:10108000FFF0F0F0F3F3F3FFFFFFFFF8F0F0F3F001
:10109000F0F8EF2BF974361616070B0F0607070743
:1010A0000F07010303010303010101030303030D00
:1010B0000507772E0E7558EAEFCF8FFFFFFFFFFF72
:1010C000FFFFFFFFFFFF000000F9F9000004FF0031
:1010D000000039393FFFE000001F0000E0FFFF0083
:1010E000000039393FFF000000F8C3000000FF8016
:1010F00000003F33820202FF00000039393FFFFF4A
:10110000FFFFFFFFFFFFFFFFFFFFFFFFFFFFDBFB17
:10111000126AE2FAFAFCE080F0F0F8F0FCF8F8F875
:10112000F8F8F8F8E8FCFCFCF87CFCF8F0F8F0F0D3
:10113000F0F0E0E0E1F0C9E9C89BFF9EFFE7FFFFA8
:10114000FFFFFFFFFFFFFFFFFFFFFFFFFFFFFFFFAF
:10115000FFFFFFFFFFFFFFFFFFFFFFFFFFFFFFFF9F
:10116000FFFFFFFFFFFFFFFFFFFFFFFFFFFFFFFF8F
:10117000FFFFFFFFFFFFFFFFFFFFFFFFFFFFFFFF7F
:10118000FFFFFFFFFFFFFFFFFFFFFFFFFFFF93A535
:10119000E67CCF030703030101010000000000010A
:1011A0000101010101010001010100000100020132
:1011B00001010101010103031B0F3FF3BEEEDFFF3D
:1011C000FFFFFFFFFFFFFFFFFFFFFFFFFFFFFFFF2F
:1011D000FFFFFFFFFFFFFFFFFFFFFFFFFFFFFFFF1F
:1011E000FFFFFFFFFFFFFFFFFFFFFFFFFFFFFFFF0F
:1011F000FFFFFFFFFFFFFFFFFFFFFFFFFFFFFFFFFF
:10120000FFFFFFFFFFFFFFFFFFFFFFFFFFB7C74726
:101210000505010C6000008000070716161C1EF86B
:101220006EF4F8FFFFFFFCFC705EFCECC6E86008A3
:10123000100C040604000000446048361FFF87EFCE
:10124000FFFFFFFFFFFFFFFFFFFFFFFFFFFFFFFFAE
:10125000FFFFFFFFFFFFFFFFFFFFFFFFFFFFFFFF9E
:10126000FFFFFFFFFFFFFFFFFFBFFFFFBFBF9FBFEE
:10127000274B2F274FE377FBBBFDE6FFFFFFFF7FE9
:101280003F3F7F3F6F07DF0F27EBFFBFFFFFF9DC1B
:10129000F54022820281C04403100000008070FEED
:1012A000FFE787070F0F1F3F1F0F0F87E7FFF8802C
:1012B00000000000408220E8200080C4BFFEC77EFE
:1012C000F7FFFFFFFFFFFFFFFFFFFFFFFFFFFFFF36
:1012D000FFFFFFFFFFFFFFFFFFFFFFFFFFFFFFFF1E
:1012E000FFFFFFFFFF7F7B0F11470104080401018F
:1012F000036E5C3AB22FDFDFBFFFFFFFFFBFBBFD16
:1013000037BB4AB2DC7E1A603E1F5F5FE90FDF57D2
:10131000FF7D8000400200000020387C3F3F0FA886
:10132000371FDFFF9FFFFFFF9F9F8F9F0F0F5B3FC9
:101330003F3C70000003008045802FFF3F5FA3D13A
:10134000FF1F6F6F1BFFFFFFFFFFFFFFFFFFFFFF91
:10135000FFFFFFFFFFFFFFFFFFFFFFFFFFFFFFFF9D
:101360003F5F07154000000400000000000000007F
:1013700001001000000123893F7BDD1D7F1F2F3BF3
:101380001C3B0A0302040000C080A0E0FBE1F1FC6A
:10139000DF767C9C38800000000000000602040517
:1013A00004040404040604040404040404000808F7
:1013B0000C1500000000002002010C0B0201000CC3
:1013C00001000002014A01FA000000320088019683
:1013D00000DC03FA00000032004B0296000601FA1E
:1013E00000000032003701960088019600D2019675
:1013F000008801FA00000032006E0296000B022CF9
:101400000100808E017801660152013F012B01210C
:10141000010B01F600E000CA007F026B0258024592
:1014200002350223020D02FA01ED01D701C101B319
:1014300001A101B2039C038603760361034B0336CB
:1014400003280316030403F402DE02C902B3029F59
:101450000293028C0476046704540441042B04179D
:10146000040204EC03DD03C7038205700560054C2C
:10147000053605210514050105F404DF04CA04B787
:1014800004A104D206BD06AB069806880673066161
:101490000650063E0629061306FE05E905D605C0D8
:1014A00005AD059D059505204E61763A2044706195
:1014B0006420457869743A2041008C07EC070A08DB
:1014C00096082C08E906120D0B100D0B7507650721
:1014D0005F075E074A0742075E072E075E071B0786
:1014E0000607F106080B00020202000009040000D2
:1014F000010202000005240010010524010101047D
:101500002402060524060001070581031000400996
:10151000040100020A000000070502024000000763
:101520000583024000000403090412010002EF02D7
:1015300001404123368000010102030141726475BC
:10154000696E6F204C4C430041726475696E6F2068
:101550004C656F6E6172646F0000461D11241FBEE2
:10156000CFEFDAE0DEBFCDBF12E0A0E0B1E0E2E80D
:10157000F1E602C005900D92AA32B107D9F726E034
:10158000AAE2B2E001C01D92A83EB207E1F71AE05C
:10159000CEEADAE004C02197FE010E94B72CCD3AD2
:1015A000D107C9F70E94871D0C94BF300C9400002E
:1015B0008091410208956F927F928F929F92AF9295
:1015C000BF92CF92DF92EF92FF920F931F93CF9330
:1015D000DF9330E0F901E80FF91F1E161F060CF02B
:1015E0009EC0803891050CF09AC0FB01E00FF11D00
:1015F0001E161F060CF093C0603471050CF08FC0EE
:10160000DB0177FF04C0AA27BB27A61BB70BA77077
:10161000BB27FB0177FD3796C3E0F595E795CA95A3
:10162000E1F777FF07C0319768E070E0EB01CA1B74
:10163000DB0BDE01A02EA694A694A694B12C077015
:1016400019F0DFEFAD1ABD0ABF018A01EF01D6958F
:10165000DC2FCC27D795C795C80FD91FC459DD4FAC
:10166000AE0EBF1E48E050E04A018A1A9B0AA61639
:10167000B70609F454C06830710509F450C06F3FD3
:10168000EFEF7E070CF441C050E040E07E01F0E84F
:10169000EF0EF11C42175307C4F5FC01E40FF51FD0
:1016A000E038F10594F5F7FD2DC06F3F7607A1F105
:1016B000FA01E00FF11FE4916E01C40ED51EF0E0B7
:1016C0003F010A2E01C0660C0A94EAF7F601708009
:1016D000672860821097B1F06730710599F0FA01C0
:1016E000E00FF11FE4916701C40ED51EF0E03F0149
:1016F000082C02C0759467940A94E2F7F601708092
:10170000672860824F5F5F4FC5CF6F5F7F4F020FCB
:10171000131FC058DF4FABCF109709F7F3CFDF91FE
:10172000CF911F910F91FF90EF90DF90CF90BF90DE
:10173000AF909F908F907F906F900895ECE6F2E0CD
:1017400080E0A0E0B8E000800EBC8111012C119770
:10175000A0FDFDCF0192B9F70DB4089580E0ECE64D
:10176000F2E081118FEF0024819381938193819323
:101770000394D1F7EDECF6E0128A118A108A1786ED
:1017800008959091D706982329F49091D60698232E
:1017900081E009F480E00895FC0180916B028823C8
:1017A00011F13FB7F89482E08093E9002091F200B4
:1017B000822F90E01816190614F481E090E0882337
:1017C00039F0289844E640936A024091F100408342
:1017D000222339F02091F200211103C02BE620933F
:1017E000E8003FBF08958FEF9FEF08952FB7F8945B
:1017F00083E08093E9009091E800892F807295FF43
:1018000004C09091F20080E4891B2FBF089580915D
:10181000620281110DC082E080935E0284E08093B9
:101820005F02109261021092600281E08093620276
:101830008EE592E00895CF93DF931F92CDB7DEB788
:101840006983DC01ED91FC910280F381E02D41E0A0
:1018500050E0BE016F5F7F4F09950F90DF91CF91F0
:10186000089583E08093E9008091F200882319F0C5
:101870008AE38093E80008950E94F60B90E00895B3
:10188000CF93DF931F92CDB7DEB7FC01848595859A
:1018900097FD08C02FEF3FEF358724870F90DF912A
:1018A000CF910895CE0101960E94CC0B019719F4B7
:1018B000898190E0F3CF8FEF9FEFF0CF0F931F93CD
:1018C000CF93DF931F92CDB7DEB78C01FC018485E7
:1018D000958597FF0BC0CE0101960E94CC0B019716
:1018E00071F4898190E0F80195878487F8018485F7
:1018F00095850F90DF91CF911F910F9108958FEFF4
:101900009FEFF1CFFC018485958597FD0BC09FB7B4
:10191000F89482E08093E9008091F2009FBF90E00C
:10192000019608959FB7F89482E08093E900809132
:10193000F2009FBF90E008954091580250915902E3
:10194000209156023091570242175307B4F49091F8
:10195000E8009570E1F39091E80092FD19C0809342
:10196000F100809158029091590201968F73992746
:10197000892B19F48EEF8093E800809158029091A2
:1019800059020196909359028093580281E008957C
:1019900080E00895EF92FF920F931F93CF93DF9310
:1019A000F82E192FE62E042F81E0860F880F0E9453
:1019B0009C0C83E00E949C0CCF2DD12FEC0EFD2EB1
:1019C000F11CCE15DF05B9F007FF13C0FE018491AD
:1019D0000E949C0C182F80E00E949C0C8123219671
:1019E0008111EFCFDF91CF911F910F91FF90EF9079
:1019F00008958881EDCF81E0F5CFDF92EF92FF92DD
:101A00000F931F93CF93DF93D82E8A01EB017B01B5
:101A1000E40EF51ECE15DF0559F0D7FE12C0FE010B
:101A200084910E949C0C21968111F4CF0FEF1FEF3F
:101A3000C801DF91CF911F910F91FF90EF90DF9040
:101A400008958881EECF0F931F93CF93DF931F925A
:101A5000CDB7DEB782E0898342E450E064EE74E102
:101A600080E80E94FD0C0E94070CDC0112960D918B
:101A70001C910115110589F0D801ED91FC910280AE
:101A8000F381E02DBE016F5F7F4FC801099597FD7F
:101A900004C0F80100851185ECCF89810F90DF919A
:101AA000CF911F910F910895615030F02091F10076
:101AB000FC0120830196F8CF289884E680936A027F
:101AC0000895AF92BF92CF92DF92EF92FF920F9361
:101AD0001F93CF93DF936C017B018B01040F151FC4
:101AE000EB015E01AE18BF08C017D10759F069912C
:101AF000D601ED91FC910190F081E02DC601099590
:101B0000892B79F7C501DF91CF911F910F91FF903C
:101B1000EF90DF90CF90BF90AF9008953FB7F894CB
:101B20008091380290913902A0913A02B0913B0223
:101B300026B5A89B05C02F3F19F00196A11DB11D28
:101B40003FBFBA2FA92F982F8827BC01CD01620F64
:101B5000711D811D911D42E0660F771F881F991F1F
:101B60004A95D1F708958F929F92AF92BF92CF92EC
:101B7000DF92EF92FF926B017C010E948E0D4B0170
:101B80005C01C114D104E104F104B9F00E948E0D8E
:101B9000681979098A099B09683E73408105910596
:101BA00080F321E0C21AD108E108F10888EE880E1E
:101BB00083E0981EA11CB11CE4CFFF90EF90DF9052
:101BC000CF90BF90AF909F908F9008958F929F92EB
:101BD000AF92BF92CF92DF92EF92FF920F931F933B
:101BE000CF93DF936C017B018A0180910F018823E1
:101BF00009F45CC080916B02882309F457C080917E
:101C00005D0280FF05C08091E00082608093E0006B
:101C1000E801B12C8AEFA82E93E0892E2AE3922EB8
:101C2000209711F4BB20D9F10E94F60B81110AC054
:101C3000AA94AA20D9F161E070E080E090E00E94CF
:101C4000B30DEECF8C171D0611F00CF08C2F9FB743
:101C5000F8948092E9002091E80025FD02C09FBF22
:101C6000DFCF282F30E0C21BD30BF701815020F0CB
:101C700041914093F100FACFE20EF31EBB2021F018
:101C80009092E800B12CEBCF8091E80085FDE7CF82
:101C90009092E800BB24B394209709F3F3CF5D98AA
:101CA00084E680935C02101611063CF081E090E01F
:101CB000F6019383828310E000E0C801DF91CF91A9
:101CC0001F910F91FF90EF90DF90CF90BF90AF905A
:101CD0009F908F90089520913002E0912E02F09114
:101CE0002F02CF01029690932F0280932E0222237F
:101CF00019F0859194910895808191810895CF92F2
:101D0000DF92EF92FF92CF93DF930E946B0E8115CB
:101D100020E8920791F4809171008D7F809371008B
:101D2000109291004698479810924002DF91CF910F
:101D3000FF90EF90DF90CF90089521E02093400234
:101D4000813020E8920751F480912C0290912D026D
:101D500090932F0280932E020E946B0E97FD05C078
:101D600020912B02222309F454C020912A02211130
:101D700050C021E020933102EC01DF77209709F079
:101D80004BC081E08093320246983FE9C32E3FE08A
:101D9000D32EE12CF12CCAEFD0E0E091CA06F091ED
:101DA000CB060995811103C081E0809332028091B6
:101DB0003102882329F080913202882309F43FC040
:101DC00047980E946B0E0097F1F19C01DE010E9482
:101DD000802CDC01CB0129E0B595A79597958795D7
:101DE0002A95D1F7109290002AE020939100D0928A
:101DF0009900C09298008093330290933402A0938C
:101E00003502B09336028091710082608093710038
:101E10008DCF10923102B0CF9E0150E040E060E4DF
:101E200072E48FE090E00E942C2C69017A0181E03D
:101E3000C81AD108E108F10810923202AECF4699D3
:101E4000BFCF479ABECF8FEF9FEFDC01CBCF9C0176
:101E5000E1E7F0E090819D7F908381E08093300204
:101E600030932F0220932E0230932D0220932C02C8
:101E70000C947F0EBC0190E080E00C94B30D8FB108
:101E80008095807F669B88601C9B8460089593E8A2
:101E900094BD609567BD91EF90938000409388005A
:101EA00080938A000895109241023E983F980895C9
:101EB0003E9A3F9A81E080934102089520E191E0AB
:101EC00061FD94E060FD990F62FD9295687F269F09
:101ED000D0011124A80FA459BD4F8C9140FF03C01D
:101EE000892B8C93089590958923FBCF2F923F9255
:101EF0004F925F926F927F928F929F92AF92BF921A
:101F0000CF92DF92EF92FF920F931F93CF93DF93C5
:101F1000CDB7DEB728970FB6F894DEBF0FBECDBFA2
:101F20009E838D836A3061F5DC0155968C91B8E013
:101F30008B9F90011124ED81FE8181899289820F0E
:101F4000931F928B818B108A178681E090E02896F0
:101F50000FB6F894DEBF0FBECDBFDF91CF911F91BA
:101F60000F91FF90EF90DF90CF90BF90AF909F9038
:101F70008F907F906F905F904F903F902F9008953B
:101F80006D3019F32D813E8138872F83D9011F963B
:101F90000D911C915097003811050CF07CC05196A2
:101FA000AD90BC90B0E4AB16B1040CF074C0F90174
:101FB000258825E0C801229E800D911D1124181648
:101FC00019060CF068C0622C712CC30133E0880F35
:101FD000991F3A95E1F78A0D9B1D181619060CF00A
:101FE0005AC0F489FB83AF81B8855396BC91BC83FA
:101FF000629FB0011124FB01E256F74F2F011982B5
:10200000F2018491F981F53009F480E0450128E07E
:102010002A83A82FB0E0BE83AD833C8080FF3B8045
:10202000311004C0BB81EC81BE17F9F078018E2D10
:10203000801B8215D0F4D12CC12CC21490F4F0E88E
:10204000EF16F10450F4B601680D791D6034710586
:1020500020F4432DC7010E945E0F2FEFC21AD20A4F
:10206000ECCF3FEFE31AF30AE2CF8D819E81959585
:1020700087959A8191509A83860C971C9111C9CFAC
:10208000A981AF5FA983BFEF4B1A5B0A060D171D2D
:10209000A63009F0B5CFEF81F8852589422F50E0B1
:1020A00087859089F6E02F9F800D911D1124AF81C7
:1020B000B88550969C938E931F9756962C91569761
:1020C000222309F442CF6AEF64039001659F300D2B
:1020D000112420583F4F281739070CF036CFED91C7
:1020E000FC9111970190F081E02D6AE0CD010995F6
:1020F0002CCF0895089590E080E00895EF92FF922C
:102100000F931F93CF93DF937C018C01D0E0C0E04D
:10211000D701D0968C918C171D0691F088F0F801AC
:10212000819191918F01009749F0DC01ED91FC9133
:102130000680F781E02D6DEC76E009952196E8CFD9
:10214000DF91CF911F910F91FF90EF900895EF9243
:10215000FF920F931F93CF93DF930097E9F0EC0169
:102160007C0110E000E088A980171106A9F0A0F01A
:10217000D7018D919D917D01009759F0DC01ED9182
:10218000FC910280F381E02D0995F70132971182CD
:1021900010820F5F1F4FE7CFDF91CF911F910F91FB
:1021A000FF90EF90089588E0089586E998E00895FB
:1021B00089E090E008950895FC0182819381268151
:1021C0003781820F931F9383828384819581208539
:1021D0003185820F931F95838483089588E0089545
:1021E000DC011A96EC91E770F0E0EE0FFF1FE65E5F
:1021F000FE4F80819181089583E090E008950895D5
:1022000088E090E008950895FC018285811103C063
:102210008CE298E0089586E398E0089586E090E0E7
:1022200008950895FC018285811103C08AE098E039
:10223000089584E198E0089582E090E00895FC011B
:102240008385948518161906BCF48281938135E044
:10225000959587953A95E1F78038910568F4648102
:10226000758125E0759567952A95E1F760347105CC
:1022700018F441E00C945E0F089587E090E0089513
:102280000895FC012785243051F4858596858F318A
:10229000910540F4892B49F48CEE97E0089582EE85
:1022A00097E0089580E098E0089586EF97E008951C
:1022B000FC01878590E008950895CF93DF93EC01AA
:1022C0000E943F0F85FF0CC08E819F812B853C852E
:1022D000121613060CF04FC0805491099F838E8311
:1022E0000E943F0F86FF0CC08E819F812B853C850D
:1022F000121613060CF041C0805C9F4F9F838E83A3
:102300000E943F0F87FF0BC0888599852B853C85F0
:1023100012161306A4F580549109998788870E94A4
:102320003F0F84FF0BC0888599852B853C8512164D
:1023300013063CF5805C9F4F998788878D859E8525
:10234000009709F045C00E943F0F83FF1CC080E842
:1023500097E09C878B8740E061E081E00E94470F17
:102360008EE997E00E94270F8B859C85009799F452
:10237000DF91CF9108958A97B1CF8A96BFCF8A9780
:10238000CCCF8A96D9CF0E943F0F82FFEDCF8B85AD
:102390009C850097E1F22E813F81232B21F4288533
:1023A0003985232B29F38054910997FD1CC09C8704
:1023B0008B878B859C85892BD9F686E990E09E8753
:1023C0008D8740E060E081E0DF91CF910C94470F72
:1023D00001979E878D87892B39F640E061E080E088
:1023E0000E94470FC1CF1C861B86E3CFFC0182856C
:1023F000811103C08CE897E0089586E997E008957D
:1024000081E090E0089508952F923F924F925F925D
:102410006F927F928F929F92AF92BF92CF92DF92F4
:10242000EF92FF920F931F93CF93DF93EC018B01F9
:10243000CA80DB80DB011296ED90FC901397CE14DE
:10244000DF040CF054C0E881F9810284F385E02DAB
:102450000995B0E28B9F40011124F801428053801E
:102460000190F081E02D0284F385E02DC8010995EB
:10247000EC80FD80F80164807580E614F7040CF0B0
:102480004CC0E881F9810484F585E02DCE010995E1
:10249000F0E28F9F50011124D80114962D903C90AA
:1024A0001597ED91FC910484F585E02DC8010995FF
:1024B0004C185D084814590434F42E183F0881E084
:1024C0002A143B040CF080E0DF91CF911F910F9113
:1024D000FF90EF90DF90CF90BF90AF909F908F9044
:1024E0007F906F905F904F903F902F900895ED9167
:1024F000FC910284F385E02DCB010995B0E28B9F1E
:10250000400111244A805B80E881F9810284F385CF
:10251000E02DCE0109956701ABCF0190F081E02D50
:102520000484F585E02DC8010995B0E28B9F500128
:1025300011242C803D80E881F9810484F585E02D0B
:10254000CE0109957301B4CFFC0126813781211595
:10255000310519F08CF081E0828782819381820FAE
:10256000931F938382838481958120853185820F97
:10257000931F9583848308951286EFCFCF93DF93C3
:10258000EC018B859C85181619065CF4CE010E941F
:10259000A4128B859C85C0979C878B87DF91CF91F8
:1025A00008951C861B86FACFCF93DF93EC018B85B1
:1025B0009C85181619065CF4CE010E94A4128B8526
:1025C0009C85C0979C878B87DF91CF9108951C864F
:1025D0001B86FACF089580E0089590E080E008958A
:1025E0000F931F93CF93DF93EC01E881F98100846F
:1025F000F185E02D0995892B51F1E881F981048459
:10260000F585E02DCE010995082FE881F981028436
:10261000F385E02DCE010995182FE881F98100841A
:10262000F185E02DCE0109956C817D8125E07595C0
:1026300067952A95E1F7EA81FB81212FAC01CF0153
:1026400035E0959587953A95E1F70E94DB0ADF9191
:10265000CF911F910F910895FC01238521110C94B6
:10266000F0120895FC012585211102C00C94F0128E
:102670000895FC0101900020E9F73197AF01481B54
:10268000590BBC018DEC96E00C94610DCF93DF9358
:10269000D0E0C0E0009719F00E943913EC0187E107
:1026A00092E00E9439138C0F9D1FDF91CF91089506
:1026B000009711F00C94391390E080E008950F9387
:1026C0001F93CF93DF93EC018D85811134C08B85EF
:1026D0009C85009709F04AC0232B21F1F801A081C5
:1026E000B1811097F9F012962D913C9113978A8140
:1026F0009B81281B390B14968D919C914C815D8197
:10270000841B950BA901415E5F4F4F335105C0F407
:102710001F821E829C01215E3F4F2F333105D8F46A
:10272000198618860E94ED2B6FE070E00E94A32CA2
:102730000F969C878B87DF91CF911F910F91089502
:10274000121613062CF42AE030E03F832E83E2CFEA
:1027500026EF3FEFFACF181619062CF48AE090E026
:1027600099878887DFCF86EF9FEFFACF0197E1CF78
:10277000CF93DF93EC010E94F012269684E0FE01D5
:1027800011928A95E9F7DF91CF9108950C94592D14
:102790000C94592D0C94592D0C94592D0C94592DA1
:1027A0000C94592D0C94592D0C94592D0E94E22D06
:1027B000CF93C091410282E090E00E94162CC8178E
:1027C00031F06C2F82E090E0CF910C941E2CCF91D1
:1027D00008950C94162C6F927F928F929F92AF92D5
:1027E000BF92CF92DF92EF92FF920F931F93CF93FE
:1027F000DF9300D000D0CDB7DEB77C016901DC01EA
:102800001D968D919C911E97009729F001971E9619
:102810009C938E931D97F70187859089009719F0F7
:102820000197908B87870E94ED2B66E070E00E94F5
:10283000A32C8130910509F485C08230910509F4FB
:10284000FCC0892B09F058C0D7011D968D919C9131
:10285000892B09F051C00E94ED2B69E070E00E94C5
:10286000A32C8830910590F4875C9B4EFC010C945E
:10287000B72C411441148F148F14951495149C1483
:102880009C14D7011A961C9290E080E0880F991F43
:10289000880F991FBC016059774F44E050E0CE018A
:1028A00001960E94FD2B49815A8185E0849F900109
:1028B000859F300D1124D70117963C932E931697C0
:1028C0004B815C81849F9001859F300D1124199666
:1028D0003C932E9318970E94ED2B6EE170E00E94BE
:1028E000A32C97FD0196959587958730910508F45F
:1028F0009CC0F701968785870F900F900F900F90DF
:10290000DF91CF911F910F91FF90EF90DF90CF90CB
:10291000BF90AF909F908F907F906F90089582E0CE
:10292000F701828782E090E0B1CF84E0D7011A9668
:102930008C9384E090E0AACF86E0F701828786E05E
:1029400090E0A4CFF70185859685892BA9F6CD283F
:1029500011F2D801ED91FC91309709F4BCCFC280FF
:10296000D380D7011296AD90BC9013970481158146
:1029700014968D909C900E94ED2B62E070E00E9476
:10298000A32C0097A1F0019709F0A5CF0819190908
:102990009801215E3F4F2F33310588F5F7011186ED
:1029A0001086D70117961C921E92169794CFCA18BC
:1029B000DB089601215E3F4F2F33310548F4F701C4
:1029C00017821682D70119961C921E92189783CFF0
:1029D0001C141D0464F482E0D7011A968C931A9794
:1029E00085E090E017969C938E931697EBCF86E048
:1029F000F70182878BEF9FEF97838683E3CF1016D3
:102A0000110664F484E0D7011A968C931A9785E036
:102A100090E019969C938E931897C3CFF701128676
:102A20008BEF9FEF91878087BCCF87E090E0D70145
:102A30001E969C938E931D975FCFF7018785908993
:102A4000892B09F059CFCD2809F456CFD8012D9103
:102A50003C912115310509F44FCFA385B48510971A
:102A600009F44ACF1B968D919C911C971816190654
:102A70000CF442CF82809380F901C280D380C818C1
:102A8000D908F70164807580F901A480B580A61883
:102A9000B70884E097012A5F3F4FF90111928A95A8
:102AA000E9F7F7018285883008F04AC0E82FF0E0A6
:102AB0009F012F593A4EF80180819181F9010C94C0
:102AC000B72C69156915D215D21526162616761655
:102AD0007616DC01ED91FC910284F385E02D0995D9
:102AE000D7011B96ED91FC91B0E18B9FC0011124A1
:102AF000880E991E93828282D70114968D919C91A3
:102B000095838483F80180819181DC01ED91FC91B2
:102B10000484F585E02D0995B7FE03C0B194A19416
:102B2000B108B0E28B9FC0011124D7011B96ED9133
:102B3000FC91A816B9068CF51186108617821682AC
:102B4000D7011B96ED91FC9186819781892B29F401
:102B500080859185892B09F4CFCE8EE398E00E9481
:102B6000270FD7011B96ED91FC9180E090E19487AF
:102B700083870E94ED2B6EE170E00E94A32C47E05A
:102B8000489F9001499F300D11242A35310508F4E2
:102B9000E4C0F701308B2787AFCE80ED9FEF9187A0
:102BA0008087CCCFDC01ED91FC910284F385E02D90
:102BB0000995D7011B96ED91FC91B0E28B9FC00166
:102BC0001124880E991E93828282F701A480B58019
:102BD000D8018D919C91DC01ED91FC910484F585E7
:102BE000E02D0995D7011B96ED91FC91B0E18B9FEB
:102BF000C00111248A0D9B1D95838483F801808177
:102C00009181DC01ED91FC910284F385E02D099521
:102C10009601D7FE04C0222733272C193D09B0E2C4
:102C20008B9FC0011124D7011B96ED91FC912817B1
:102C300039071CF41782168206C080E390E01C144A
:102C40001D040CF487C0118610867ACFDC01ED914B
:102C5000FC910284F385E02D0995D7011B96ED9137
:102C6000FC91B0E18B9FC0011124880E991E9382C4
:102C70008282F701C480D580D8018D919C91DC01BE
:102C8000ED91FC910484F585E02D0995D7011B9603
:102C9000ED91FC91B0E28B9FC00111248C0D9D1D24
:102CA00095838483F80180819181DC01ED91FC9111
:102CB0000484F585E02D09959501B7FE04C022270F
:102CC00033272A193B09B0E28B9FC0011124D70199
:102CD0001B96ED91FC91281739070CF42DCF1A148F
:102CE0001B040CF02BCF80E390E059CF13969C92FD
:102CF0008E921297DC01ED91FC910484F585E02D14
:102D00000995D7011B96ED91FC91B0E18B9FC00115
:102D10001124680E791E75826482F8018081918188
:102D2000DC01ED91FC910284F385E02D0995D7FE3D
:102D300003C0D194C194D108B0E28B9FC00111248B
:102D4000D7011B96ED91FC91C816D9060CF472CFF1
:102D500080ED9FEF9783868376CF8AE590E0D70159
:102D600050969C938E931F97C7CDAF92BF92CF92F0
:102D7000DF92EF92FF920F931F93CF93DF9300D0D8
:102D800000D0CDB7DEB77C016901DC011D968D91C5
:102D90009C911E97009729F001971E969C938E9305
:102DA0001D97F70187859089009719F00197908BFF
:102DB00087870E94ED2B66E070E00E94A32C813093
:102DC0009105A9F18230910509F4A8C0892B09F079
:102DD00071C0D7011D968D919C91892B09F06AC015
:102DE0000E94ED2B69E070E00E94A32CBC01660FED
:102DF000771F660F771F6059774F44E050E0CE0190
:102E000001960E94FD2B89819A8145E0880F991FC8
:102E10004A95E1F7F701978386838B819C8155E082
:102E2000880F991F5A95E1F79187808731C0D701A4
:102E30001D968D919C91892BE9F5CD2849F1D801FA
:102E4000ED91FC91309721F122813381D7011296C7
:102E50008D919C911397281B390B84819581149631
:102E60004D915C911597841B950BA901415E5F4FB5
:102E70004F33510570F517961C921E9216979C01C0
:102E8000215E3F4F2F333105A0F5F70111861086E3
:102E90000E94ED2B6EE170E00E94A32C97FD01963D
:102EA000959587958730910598F1D7011E969C934B
:102EB0008E931D970F900F900F900F90DF91CF91F1
:102EC0001F910F91FF90EF90DF90CF90BF90AF9048
:102ED00008951216130634F420E230E0F701378328
:102EE0002683CDCF20EE3FEF17963C932E93169777
:102EF000C6CF1816190644F480E290E0D70119965F
:102F00009C938E931897C4CF80EE9FEFF7018CCFE0
:102F100087E090E0F70196878587CCCFD7011F9691
:102F20008D919C915097892B29F6CD2819F2F801A3
:102F3000408151814115510509F4BCCF1B96ED919B
:102F4000FC911C97309709F4B5CF838594851816AA
:102F500019060CF4AFCF12962D913C91DA0112961E
:102F6000AD90BC90A21AB30AD70114968D919C9192
:102F7000DA011496CD90DC90C81AD90A44E0B70162
:102F80006A5F7F4FDB011D924A95E9F73383228305
:102F900095838483F80180819181DC01ED91FC911E
:102FA0000284F385E02D09959501B7FE04C0222720
:102FB00033272A193B09B0E28B9FC0011124D701A6
:102FC0001B96ED91FC91281739070CF048C0178229
:102FD0001682F80180819181DC01ED91FC910484DD
:102FE000F585E02D09959601D7FE04C022273327E9
:102FF0002C193D09B0E28B9FC0011124D7011B960B
:10300000ED91FC9128173907A4F511861086868169
:103010009781892B29F480859185892B09F44ACFE2
:103020008CE198E00E94270FD7011B96ED91FC914F
:1030300080E496E0948783870E94ED2B6EE170E038
:103040000E94A32C47E0489F9001499F300D112416
:103050002A353105C0F0F701308B27872BCF80E36D
:1030600090E01A141B0414F080ED9FEF9783868381
:10307000B0CF80E390E01C141D0414F080ED9FEFAE
:1030800091878087C4CF8AE590E0D70150969C93C2
:103090008E931F970FCF4F925F926F927F928F9276
:1030A0009F92AF92BF92CF92DF92EF92FF920F93D7
:1030B0001F93CF93DF9300D000D0CDB7DEB77C0154
:1030C0006901DC01ED91FC910480F581E02D099509
:1030D000049709F090C001151105A1F1D801ED91F7
:1030E000FC91309779F1D70112962D913C9113976D
:1030F00082819381281B390B14968D919C91159791
:10310000648175811D964D915C911E974115510505
:1031100031F0415051091E965C934E931D972056F5
:103120003E4F2134334070F4861B970B80569E4FE0
:103130008134934038F48CE390E0D7011E969C9341
:103140008E931D97F70183859485009709F04CC0F5
:103150000E94ED2B69E070E00E94A32CBC01660F79
:10316000771F660F771F6059774F44E050E0CE011C
:1031700001960E94FD2B89819A8145E0880F991F55
:103180004A95E1F7D70117969C938E9316978B81FA
:103190009C8155E0880F991F5A95E1F719969C93E9
:1031A0008E9318970E94ED2B6EE170E00E94A32C85
:1031B00097FD019695958795F701948783870F90E2
:1031C0000F900F900F90DF91CF911F910F91FF9073
:1031D000EF90DF90CF90BF90AF909F908F907F90B7
:1031E0006F905F904F9008950197D7011C969C9324
:1031F0008E931B97E4CFC114D10409F30115110577
:10320000F1F2F80180819181892BC9F20E94ED2BA6
:10321000F801D70112966D917C91139714966D90D9
:103220007C9088248A94982CA82C9FE7B92E90E053
:1032300080E0A191B19112964D915C911397461B3C
:10324000570B14962D913C9126193709449FD001B4
:10325000459FB00DB00D1124229FA001239F500D5A
:10326000500D11244A0F5B1F9A01550F440B550B4B
:10327000281539054A055B051CF449015A012C0142
:1032800001968C159D05A9F6440C551C040D151DC1
:10329000F801A081B1811296AD90BC901397A61A47
:1032A000B70A1496CD90DC901597C618D708ED9103
:1032B000FC9111970284F385E02DCD0109959501CC
:1032C000B7FE04C0222733272A193B09F0E28F9F5B
:1032D000C0011124281739073CF5D70117961C9215
:1032E0001E921697F80180819181DC01ED91FC918D
:1032F0000484F585E02D09959601D7FE04C02227A8
:1033000033272C193D09B0E28B9FC00111242817E7
:103310003907DCF4F701118610860E94ED2B6EE16F
:1033200070E00E94A32C61CF1A141B0434F48AE0CD
:1033300090E0F70197838683D5CF86EF9FEFD70183
:1033400017969C938E931697CDCF1C141D0444F4AE
:103350008AE090E0D70119969C938E931897DDCF61
:1033600086EF9FEFF70191878087D7CF1F920F924B
:103370000FB60F9211248F939F938091E10090914B
:10338000E100937F9093E10083FF0FC01092E9006A
:1033900091E09093EB001092EC0092E39093ED009B
:1033A00010926B0298E09093F00082FF22C093E0AD
:1033B0009093E9009091F200992319F09AE3909389
:1033C000E80090915C02992341F090915C02915049
:1033D00090935C02911101C05D9A90916A029923C9
:1033E00041F090916A02915090936A02911101C04C
:1033F000289A84FF18C08091E2008E7E81608093BD
:10340000E2008091E1008F7E8093E10080915D0277
:103410008E7E806180935D029F918F910F900FBE91
:103420000F901F90189580FFF7CF8091E2008E7E5D
:1034300080618093E2008091E1008E7E8093E100C4
:1034400080915D028E7E8160E5CF1F920F920FB654
:103450000F921124CF92DF92EF92FF920F931F935E
:103460002F933F934F935F936F937F938F939F938C
:10347000AF93BF93EF93FF93CF93DF93CDB7DEB7B7
:103480006C97DEBFCDBF1092E9008091E80083FF0A
:1034900025C068E0CE0145960E94540D82EF8093CE
:1034A000E8008D8987FF39C09091E80090FFFCCF3C
:1034B000982F907609F034C19E894F89588D2F89B5
:1034C000F88C911131C0803861F580915B02809356
:1034D000F1001092F1008EEF8093E8006C960FB629
:1034E000F894DEBF0FBECDBFDF91CF91FF91EF917A
:1034F000BF91AF919F918F917F916F915F914F910C
:103500003F912F911F910F91FF90EF90DF90CF90FF
:103510000F900FBE0F901F9018959EEF9093E800AC
:10352000C7CF1092F100D5CF913059F48111D3CF8C
:103530004130510581F680915B028D7F80935B0263
:10354000CACF933049F48111C6CF4130510519F6E5
:1035500080915B028260F2CF953041F48091E80067
:1035600080FFFCCF20682093E300B5CF963009F0B0
:10357000A9C00B8D1C8D22E01092E9001092590217
:1035800010925802F2122EC0109257021092560258
:103590000E94230D1F8299E09983FA8291E09E8315
:1035A00090EA98879AEF99872091580230915902B2
:1035B000275F3F4F3C832B838D831092E90010924D
:1035C000590210925802109357020093560249E094
:1035D00050E0BE016F5F7F4F80E00E94FD0C0E94B3
:1035E000230D79CF10935702009356020E94070CC7
:1035F000DC0112960D911C910115110509F451C1C0
:10360000D801ED91FC910480F581E02DBE016B5E47
:103610007F4FC8010995009709F03EC1F801008568
:103620001185EACFF3E0FF120EC08F89882309F4D9
:1036300040C0823061F440E860E188E495E10E9496
:10364000CA0C811148CF81E28093EB0047CF8130D3
:1036500029F440E86BE08CE395E1F1CF833099F7F2
:103660000E94070CDC011296ED90FC908E010F5F1A
:103670001F4F6801E114F10479F0D701ED91FC913D
:103680000680F781E02DB801C7010995080F111DCB
:10369000F701E084F184EECFD8011C92F60101908D
:1036A0000020E9F73197BF016C197D0940E0C601A0
:1036B000C6CF66E275E1FB01449150E080E80E94CC
:1036C000FD0C09CF973009F4BECF983021F481E08A
:1036D0008093F10000CF993009F0FDCE837009F09E
:1036E000B2CFEBEEF1E081E031E096E321912223CD
:1036F00071F08093E9003093EB00DF0111972C917A
:103700002093EC009093ED008F5F873079F78EE780
:103710008093EA001092EA008F8980936B02DBCEDF
:103720008B8D9C8D1092E9001092590210925802D4
:103730009093570280935602898D811192C08E8991
:103740009D89913A49F4813209F07DCF47E050E0FC
:1037500068E071E080E0B3CF913209F074CF83323A
:1037600069F48F89988DB0E0A0E080930401909374
:103770000501A0930601B0930701ADCE803269F434
:103780008091E80082FFFCCF67E088E091E00E9432
:10379000540D8BEF8093E8009ECE823209F09BCED1
:1037A0008F8980930F01EEEFFFE7859194918B3F16
:1037B0009C4D51F1E0E0F8E0809108019091090101
:1037C000A0910A01B0910B01803B9440A105B10585
:1037D000F1F480910F0180FD1AC0EE3F8AE0F807F6
:1037E00089F587E797E791838083809160008093D4
:1037F0005A0288E19BE00FB6F894A8958093600088
:103800000FBE9093600067CEEEEFFAE0D5CF8081D7
:1038100091818737974709F05ECEA8958091600027
:1038200088618093600080915A0280936000EE3F2F
:103830002AE0F20789F08091FE0A9091FF0A9183B5
:10384000808349CE808191818737980751F2909388
:10385000FF0A8093FE0AC5CF1092FF0A1092FE0A5B
:103860003ACE0E94070CDC0112960D911C910115B5
:10387000110509F4E8CED801ED91FC910190F08199
:10388000E02DBE016B5E7F4FC8010995811123CEEB
:10389000F80100851185EBCF181619060CF41BCE24
:1038A000D2CEF1E0FF12BECE6AE275E104CF1F92E4
:1038B0000F920FB60F9211242F933F938F939F93E4
:1038C000AF93BF9380913C0290913D02A0913E0244
:1038D000B0913F023091370223E0230F2D3758F586
:1038E0000196A11DB11D2093370280933C02909355
:1038F0003D02A0933E02B0933F0280913802909126
:103900003902A0913A02B0913B020196A11DB11D6E
:103910008093380290933902A0933A02B0933B020D
:10392000BF91AF919F918F913F912F910F900FBEBB
:103930000F901F90189526E8230F0296A11DB11D28
:10394000D2CF1F920F920FB60F9211242F933F9355
:103950004F935F936F937F938F939F93AF93BF9397
:10396000EF93FF938091330290913402A09135023E
:10397000B0913602892B8A2B8B2B09F440C08091A1
:10398000320281110BC088B190E4892788B98091F7
:103990003102882319F088B1805888B980913302A8
:1039A00090913402A0913502B09136021816190692
:1039B0001A061B069CF48091330290913402A09168
:1039C0003502B09136020197A109B1098093330203
:1039D00090933402A0933502B0933602FF91EF9199
:1039E000BF91AF919F918F917F916F915F914F9117
:1039F0003F912F910F900FBE0F901F9018950E942E
:103A00007F0EECCF0F931F93CF93DF938C0181E058
:103A100090E00E94E91380FF31C08AE090E00E94AC
:103A2000E9139FEF980F9E3F48F522E330E0D8015D
:103A300050963C932E931F9728E330E052963C9388
:103A40002E935197CBE0D0E0D801ED91FC910190FD
:103A5000F081E02D682FC8010995CE010E94E9137D
:103A60002196C131D10581F70E949E0B88EE93E02B
:103A7000DF91CF911F910F910C943A0FDF91CF916D
:103A80001F910F91089504970C94021DECE6F6E047
:103A90001382128288EE93E0A0E0B0E084839583E5
:103AA000A683B78385EF91E0918380838FEF9FEFAB
:103AB00095878487EDECF6E01382128211861286D8
:103AC00080E1838710861782158687E092E09183D4
:103AD000808385E192E095838483108A1786128A19
:103AE000118A81E0838B148A858B168A88ED9AE08F
:103AF0009093CB068093CA0680E090E89093C90625
:103B00008093C80646983E9A47983F9A0895CF9367
:103B1000DF93CDB7DEB7E8970FB6F894DEBF0FBEE0
:103B2000CDBF789484B5826084BD84B5816084BD46
:103B300085B5826085BD85B5816085BD80916E004B
:103B4000816080936E00109281008091810082607C
:103B500080938100809181008160809381008091B9
:103B600080008160809380008091910082608093CA
:103B700091008091910081608093910080919000EC
:103B80008160809390008091C10084608093C10027
:103B90008091C10082608093C1008091C1008160EA
:103BA0008093C1008091C30081608093C3008091A5
:103BB000C00082608093C0008091C20081608093C9
:103BC000C20080917A00846080937A0080917A00AC
:103BD000826080937A0080917A00816080937A007D
:103BE00080917A00806880937A0010926B02109224
:103BF0005B0210925D028091D70081608093D700B4
:103C000080EA8093D80089B5806189BD89B58260DA
:103C100089BD09B400FEFDCF61E070E080E090E076
:103C20000E94B30D8091D8008F7C80618093D80072
:103C30008091E000807F8093E0008091E1008E7EA3
:103C40008093E1008DE08093E200559A209A81EC08
:103C500080937C0085B1806F85B984B1877E84B9FB
:103C600084B1876E84B95E9A5F988AB1806D8AB993
:103C7000769A6E9881B3806F81BB899880B38D707E
:103C800080BB80E58CBD81E08DBD85E090E00E9429
:103C90003A0F5F9A85E090E00E943A0F5E985C9838
:103CA000EEE9FDE08BEA9DE024912EBD00000DB40D
:103CB00007FEFDCF31968E179F07B1F75C9A81E81A
:103CC000809364008091650081608093650082E04C
:103CD00090E00E94E913882309F45AC00E94580F0B
:103CE00081E28093D80681E08093E2069E012F5FF7
:103CF0003F4F290188E0D9011D928A95E9F780E1BB
:103D000090E00E94E9138134D1F481E190E00E94B7
:103D1000E9138335A1F482E190E00E94E913843530
:103D200071F4720103E110E0C8010E94E913F70188
:103D300081937F010F5F1F4F0B311105A9F78E8112
:103D40009F819093500280934F028BEA9DE00E94E6
:103D5000270F8FB7F89440913C0250913D0260913B
:103D60003E0270913F028FBF8091D906F42FF81B5D
:103D70008F2F9091DA06992371F0F093DB06109261
:103D8000DA0680E090E0892B21F30E940000E1CF69
:103D90000E94530FA5CF9091D806F91740F48F5F7A
:103DA000891778F781E083BF889513BEEACF81E059
:103DB0008093DA064093D9068091D4069091D50677
:103DC00001969093D5068093D40610915502812FC9
:103DD0008B7F29F080910301181709F452C01093CA
:103DE00003010E94AE0B1730B8F5E12FF0E0E5506B
:103DF000F14E0C94B72C021F7E20FF207D215D2206
:103E00006722EA2280910101909102010A97909322
:103E100002018093010135E0959587953A95E1F788
:103E20001092DD061092DC069093DF068093DE068A
:103E300010E097FF27C1079623E0959587952A956F
:103E4000E1F7182F11951C3008F413C182E080931C
:103E5000550281E0809354020E949E0B809147029C
:103E600090914802A0914902B0914A020196A11D89
:103E7000B11D8093470290934802A0934902B093EA
:103E80004A02F0905502F4E0FF120C94452A80910A
:103E90004B0290914C02892B11F00C94982B1092AC
:103EA0004702109248021092490210924A0288E397
:103EB00090E00E94BD2C8C01DC0191961C921E9218
:103EC000909793961C921E92929795961C921E9292
:103ED000949797961C921E92969799961C921E9272
:103EE00098979B961C921E929A979D961C921E9252
:103EF0009C979F961C921E929E97D0961C928091A2
:103F00004E028A3010F4A3E0FA2EF801F1AA92E0F2
:103F10008F3008F491E0D801D2969C9391E08530DF
:103F200008F490E0F80193AB92E0843120F491E042
:103F30008A3008F490E0D801D4969C93D497D59613
:103F40001C92D597D6961C92D697D7961C9280E253
:103F5000F80111928A95E9F7912C812CE8E32E2E35
:103F6000312CF8E06F2E712CD801D1968C918815E8
:103F7000190409F008F4FEC30E94ED2BB1010E9460
:103F8000A32C6C0181971CF0E0E4CE0ED11C0E94A2
:103F9000ED2B60E270E00E94A32C5C01F8E0AF1A08
:103FA000B10821E1A216B10424F05C0138E1A30EAE
:103FB000B11C80E190E00E94BD2C7C0155E0CC0C4E
:103FC000DD1C5A95E1F7DC011396DC92CE92129734
:103FD00065E0AA0CBB1C6A95E1F71596BC92AE92FF
:103FE000149717961C921E92169719961C921E9261
:103FF00018971A961C921A97EEE2F1E0ED93FC9353
:104000000E94ED2BB3010E94A32C0796D7011C96AA
:104010009C938E931B971E961C921E921D97E4E014
:104020001F96EC93D801D096EC91F0E0EE0FFF1FB5
:10403000E00FF11FF182E082EF2829F441E060E017
:1040400080E00E94470FF80120A982A193A1892B4B
:1040500041F4822F90E0880F991F800F911F93A346
:1040600082A32F5FD801D0962C93BFEF8B1A9B0AA7
:104070007BCF00E0011730F489E192E00E94461303
:104080000F5FF8CF09E0010F0D3008F00CE0912C24
:10409000812CA12EB12CB6E07B2E80E4C82ED12C31
:1040A000812F880D801708F0D7CE7501E80CF91C18
:1040B000EE0CFF1C970124533B4E7901F9018591C9
:1040C00094910E940D2CDC017A9EC0017B9E900D84
:1040D000112496958795F601E81BF90BF093DD0600
:1040E000E093DC06F70165917491C2010E94062CF1
:1040F0000E944613FFEF8F1A9F0AD2CF80910101D1
:10410000E7E03E2E380E8091530290E0FC01EA5326
:10411000FB4E2491231508F4349029E030E03093CD
:10412000DD062093DC061092DF061092DE06FC010D
:10413000EE0FFF1FE654FB4E4591549108E028E036
:1041400070E060E090E080E00E94DB0A67EA74E1E2
:10415000C2010E94062C0E94461300910101109199
:104160000201202E1127000F111FF12CE12C9801C4
:104170002D5A3B4E3EAB2DABC801875E9B4E3C019A
:10418000D801AD5CBB4E4D01F801ED5FFB4E6F01F8
:1041900098012D573B4E590107591B4E231408F027
:1041A0005BCE81E090E09093DD068093DC06809109
:1041B00053028230E9F050F48823C1F0F8018130D5
:1041C00059F0239492E0E90EF11CE8CF8430A9F075
:1041D00090F0F6018530A9F7EE0DFF1D6591749101
:1041E000C2010E94062C0E944613EBCFF501F4CFCA
:1041F000EDA9FEA9F1CFF401EFCFF301EDCF80914E
:104200005402882331F01092540285EC93E10E940D
:10421000270F00E420E845EC5FE070E060E090E00C
:1042200080E00E94DB0A81E090E09093DD068093BD
:10423000DC0680E290E09093DF068093DE069091AA
:10424000000181E0911180E08093E00681E091110E
:1042500001C080E08093E1066CEB7FE0C2010E9428
:10426000062C0E9458138091410268EB7FE0811177
:1042700002C063EB7FE0C2010E94062C0E9458132B
:104280008091DC069091DD0601969093DD06809387
:10429000DC069091000181E0913009F080E080938C
:1042A000E00681E0913009F480E08093E1066CEA59
:1042B0007FE0C2010E94062C0E9458138091DC0608
:1042C0009091DD0601969093DD068093DC06909137
:1042D000000181E0923009F080E08093E00681E007
:1042E000923009F480E08093E10667EA7FE0C20142
:1042F0000E94062C0E945813AFCD20914F0230919E
:10430000500280915102909152028217930708F453
:10431000C9019F938F938AE192E09F938F938E01BF
:10432000095E1F4F1F930F930E94E72DD8010D9038
:104330000020E9F7CD01801B910B0B96F6E0BF2E14
:10434000B89E9001B99E300D112436952795B0E4A2
:10435000EB2EF12CC701821B930B9093DD0680930B
:10436000DC061092DF061092DE066AE97FE0C201E9
:104370000E94062C0E945813C8010E945813809175
:104380004E021F928F938EE1C82E82E0D82EDF92CC
:10439000CF921F930F930E94E72DF8010190002008
:1043A000E9F7CF01801B910B0696B89E9001B99E4C
:1043B000300D112436952795C701821B930B9093DE
:1043C000DD068093DC0684E190E09093DF06809325
:1043D000DE0662E97FE0C2010E94062C0E945813AB
:1043E000C8010E94581388E192E00E9458138091FE
:1043F0004D021F928F93DF92CF921F930F930E94D3
:10440000E72DD8010D900020E9F7CD01801B910B1D
:104410000B96B89E9001B99E300D112436952795C4
:10442000C701821B930B9093DD068093DC0665E841
:104430007FE0C2010E94062C0E945813C8010E940E
:10444000581388E192E00E945813809152028F9392
:10445000809151028F9383E292E09F938F931F93F9
:104460000F930E94E72DF80101900020E9F7CF019A
:10447000801B910B0696B89E9001B99E300D1124B9
:1044800036952795E21AF30AF092DD06E092DC06F3
:104490006DE77FE0C2010E94062C0E945813C801FC
:1044A0000E94581340E061E080E00E94470F0FB681
:1044B000F894DEBF0FBECDBFCFCC80914B02909160
:1044C0004C02009709F4C8CC0E947E10C5CC6091C4
:1044D0004702709148028091490290914A022EE170
:1044E00030E040E050E00E945E2CEFE0CE2ED12C78
:1044F000E12CF12CC21AD30AE40AF50A20915102E8
:1045000030915202C90164E670E00E948F2C4B0189
:10451000B12CA12CC701B601620F731F811D911D23
:1045200024E630E040E050E00E942C2C82169306F6
:10453000A406B5066CF4809140028111FCCF83E69D
:104540009FE00E94270F80914D028F5F80934D0264
:1045500080915102909152028C0D9D1D90935202B8
:1045600080935102FF92EF92DF92CF9286E292E027
:104570009F938F938E01095E1F4F1F930F930E948D
:10458000E72DD8010D900020E9F7CD01801B910B9C
:104590000B9646E0489F9001499F300D11243695B7
:1045A000279580E490E0821B930B9093DD06809327
:1045B000DC068CE190E09093DF068093DE0666E5F2
:1045C0007FE0C2010E94062C0E945813C8010E947D
:1045D00058136DCF809140028111FCCF20914F0282
:1045E00030915002809151029091520282179307AC
:1045F00008F4C9019F938F938EE192E09F938F936C
:104600008E01095E1F4F1F930F930E94E72DD80163
:104610000D900020E9F7CD01801B910B0B9626E051
:10462000D22ED89E9001D99E300D11243695279513
:1046300050E4E52EF12CC701821B930B9093DD060D
:104640008093DC061092DF061092DE066AE97FE0B6
:10465000C2010E94062C0E945813C8010E945813E0
:1046600088E39FE00E94270F82E290E09093DD06AE
:104670008093DC06E8E1F0E0F093DF06E093DE06ED
:104680006DE27FE0C2010E94062C0E94581388E16F
:1046900092E00E945813809152028F9380915102B0
:1046A0008F9383E292E09F938F931F930F930E94C7
:1046B000E72DD8010D900020E9F7CD01801B910B6B
:1046C0000696D89E9001D99E300D112436952795D7
:1046D000E21AF30AF092DD06E092DC066DE77FE075
:1046E000C2010E94062C0E945813C8010E94581350
:1046F00080915102909152020FB6F894DEBF0FBE26
:10470000CDBF20914F02309150022817390708F091
:10471000A3CB9093500280934F0221E42EA723E570
:104720002FA724E528AB20914E0229AB9BAB8AAB87
:1047300061E480E190E00E941E2C63E581E190E05D
:104740000E941E2C64E582E190E00E941E2C0A5E0D
:104750001F4FB3E1EB2EF12CD8016D918D01C701F4
:104760000E941E2CBFEFEB1AFB0AEBE1EE16F104E0
:1047700099F772CBB12CA12C28E3622E712C36ED67
:10478000832E31E0932EF80183A98A151B0409F0CA
:1047900008F462C00E94ED2BB3010E94A32C6C01AF
:1047A00081971CF020E4C20ED11C0E94ED2B68E121
:1047B00070E00E94A32C7C0141971CF040E2E40EC3
:1047C000F11C8EE090E00E94BD2CFC01B5E0CC0C09
:1047D000DD1CBA95E1F7D382C28285E0EE0CFF1CA6
:1047E0008A95E1F7F582E482178216821186108697
:1047F000128691828082148613861586D801D096FF
:104800008C91A82FB0E0AA0FBB1FA00FB11FED9392
:10481000FC93EF2B29F441E060E080E00E94470F19
:10482000F80120A980A591A5892B71F4822F90E031
:10483000880F991F800F911F91A780A742A153A1B4
:10484000452B11F493A382A32F5FD801D0962C930C
:10485000BFEFAB1ABB0A97CFF12CE12CEEEBCE2EBB
:10486000E1E0DE2EF80182A98E151F04D9F1D0F106
:104870008DE090E00E94BD2CFC0113821282158213
:10488000148217821682118610861286D182C08207
:1048900014861386D801D0968C91A82FB0E0AA0F69
:1048A000BB1FA00FB11FED93FC93EF2B29F441E048
:1048B00060E080E00E94470FF80120A984A195A143
:1048C000892B41F4822F90E0880F991F800F911F50
:1048D00095A384A32F5FD801D0962C93BFEFEB1A3A
:1048E000FB0AC0CFF12CE12C56EAC52E51E0D52EA3
:1048F000F80184A98E151F04D9F1D0F18DE090E064
:104900000E94BD2CFC011382128215821482178230
:10491000168211861086128614861386D182C08272
:10492000D801D0968C91A82FB0E0AA0FBB1FA00F82
:10493000B11FED93FC93EF2B29F441E060E080E0A0
:104940000E94470FF80120A982A593A5892B41F465
:10495000822F90E0880F991F800F911F93A782A745
:104960002F5FD801D0962C93BFEFEB1AFB0AC0CF74
:10497000912C812C88E3282E312C96E4692E91E02D
:10498000792EF80182A98815190409F008F475C078
:104990000E94ED2BB1010E94A32C5C0181971CF0B9
:1049A00020E4A20EB11C0E94ED2B68E170E00E9491
:1049B000A32C6C0141971CF040E2C40ED11C81E194
:1049C00090E00E94BD2C7C01D8019496ED91FC9161
:1049D000C401880F991FE80FF91F80819181E5E0DC
:1049E000AA0CBB1CEA95E1F7F701B382A282A5E00D
:1049F000CC0CDD1CAA95E1F7D582C4821782168201
:104A0000118610861286718260829487838716864B
:104A100015860E94ED2B68E770E00E94A32C865A51
:104A20009F4FD70150969C938E931F97D801D09695
:104A3000EC91F0E0EE0FFF1FE00FF11FF182E0823A
:104A4000EF2829F441E060E080E00E94470FF80180
:104A500020A986A197A1892B41F4822F90E0880F8D
:104A6000991F800F911F97A386A32F5FD801D0961F
:104A70002C93BFEF8B1A9B0A84CF912C812C58E387
:104A8000652E712CF80184A98815190409F008F421
:104A90007DC00E94ED2BB3010E94A32C5C01819785
:104AA0001CF020E4A20EB11C0E94ED2B68E170E026
:104AB0000E94A32C6C0141971CF040E2C40ED11C53
:104AC00081E190E00E94BD2C7C01D8019A96ED9185
:104AD000FC91C401880F991FE80FF91F8081918113
:104AE00025E0AA0CBB1C2A95E1F7F701B382A2824C
:104AF00035E0CC0CDD1C3A95E1F7D582C4821782F3
:104B000016821186108612862EE531E031832083CD
:104B100094878387168615860E94ED2B68E770E0E0
:104B20000E94A32C865A9F4FD70150969C938E9338
:104B30001F97D801D096EC91F0E0EE0FFF1FE00F29
:104B4000F11FF182E082EF2829F441E060E080E08B
:104B50000E94470FF80120A984A595A5892B71F41F
:104B6000822F90E0880F991F800F911F95A784A72F
:104B700046A157A1452B11F497A386A32F5FD80117
:104B8000D0962C93BFEF8B1A9B0A7CCF8FE090E0DE
:104B90000E94BD2CFC0180E897E09383828380E82B
:104BA00093E095838483178216821186108612867D
:104BB0008EE891E09183808314861386168615868D
:104BC000D801D0968C91A82FB0E0AA0FBB1FA00FE0
:104BD000B11FED93FC93EF2B29F441E060E080E0FE
:104BE0000E94470FF80120A9822F90E0880F991F9B
:104BF000800F911F91A380A32F5F20AB0E94ED2B0C
:104C000064E070E00E94A32C7C018130910509F4DE
:104C100092C00CF085C0892B09F49AC08CE090E01A
:104C20000E94BD2CFC01F382E2822FA938AD3583AE
:104C300024831782168211861086128686E791E0F9
:104C4000918380831386D801D0968C91A82FB0E0F1
:104C5000AA0FBB1FA00FB11FED93FC93EF2B29F4FC
:104C600041E060E080E00E94470FF80120A9822F18
:104C700090E0880F991F800F911F97A786A72F5F3D
:104C800020AB10934C0200934B02012B09F050C54E
:104C900041E060E080E00E94470FE0904B02F0901E
:104CA0004C02E114F10409F46CC86701B12CA12C89
:104CB000D701D0968C918A151B0409F008F465C0C1
:104CC000F60180819181009721F1DC01ED91FC9149
:104CD0000480F581E02D09959C01F6018081918188
:104CE0002530310509F445C0B0F522303105B0F169
:104CF000D70190960D911C91DC01ED91FC910684F9
:104D0000F785E02D21E030E04CEC56E06DEC76E0EC
:104D10000995BFEFAB1ABB0AE2E0CE0ED11CC8CF9B
:104D20008230910571F0039709F078CFA0E0B7E0E9
:104D3000B8AFAFAB02C018AE1FAAE12C5FE0F52EF2
:104D40006DCF80E097E098AF8FABF12CE12C66CF70
:104D500018AE1FAA63CF2630310551F2F70120A902
:104D600030E0DC01ED91FC910684F785E02D8701B0
:104D7000CBCFF70106A117A122A930E0DC01ED910C
:104D8000FC910684F785E02DBFCFE0904B02F090B8
:104D90004C02670110E000E0D701D0968C9180179B
:104DA000110689F080F0F601819191916F010097D1
:104DB00039F0DC01ED91FC910088F189E02D099535
:104DC0000F5F1F4FE9CF00914B0210914C02680119
:104DD0007801B12CA12CF80180A98A151B0409F0D7
:104DE00008F431C1F701A081B18112968D919C9197
:104DF000139797FF2FC0ED91FC91119713961C927A
:104E00001E92129716968D919C9117979195819568
:104E1000910917969C938E9316970480F581E02D47
:104E2000CD010995F701A081B181079721F41C9666
:104E30001C921E921B97ED91FC9111970480F581B5
:104E4000E02DCD010995089729F4D701ED91FC914A
:104E500014861386F70180819181DC0112968D9072
:104E60009C901397ED91FC910284F385E02D0995B8
:104E7000B0E28B9FC0011124880E991EE1EE8E16C0
:104E8000EFE09E060CF443C0D7018D919C91DC01AC
:104E9000ED91FC910284F385E02D0995F701A08145
:104EA000B18120EE3FE040E2849F201931091124B6
:104EB00013963C932E93129716968D919C9117976B
:104EC00091958195910917969C938E931697ED91E4
:104ED000FC9111970480F581E02DCD010995F70132
:104EE000A081B181079721F41C961C921E921B97FA
:104EF000ED91FC9111970480F581E02DCD0109958C
:104F0000089729F4D701ED91FC9114861386F701D7
:104F1000A081B18114968D919C91159797FF2FC018
:104F2000ED91FC91119715961C921E92149718966C
:104F30008D919C91199791958195910919969C93C2
:104F40008E9318970480F581E02DCD010995F70126
:104F5000A081B181079721F41C961C921E921B9789
:104F6000ED91FC9111970480F581E02DCD0109951B
:104F7000089729F4D701ED91FC9114861386F70167
:104F800080819181DC0114968D909C901597ED9114
:104F9000FC910484F585E02D0995B0E28B9FC0015A
:104FA0001124880E991EE1EE8E16E7E09E060CF4A1
:104FB00043C0D7018D919C91DC01ED91FC9104845B
:104FC000F585E02D0995F701A081B18120EE37E04C
:104FD00040E2849F20193109112415963C932E93A9
:104FE000149718968D919C91199791958195910997
:104FF00019969C938E931897ED91FC9111970480CC
:10500000F581E02DCD010995F701A081B1810797C8
:1050100021F41C961C921E921B97ED91FC91119706
:105020000480F581E02DCD010995089729F4D70179
:10503000ED91FC9114861386BFEFAB1ABB0AE2E038
:10504000EE0EF11CC8CEF12CE12CBB24B39425E06C
:10505000A22ED801D0968C91D0978E151F0409F0FE
:1050600008F41CC1F601808191819096ED91FC912C
:10507000208131818217930709F497C0DC01ED91FB
:10508000FC910480F581E02D0995F601A081B181A4
:10509000079709F06AC01B968D919C911C97181672
:1050A00019060CF062C0D8019096ED91FC918081B8
:1050B0009181F60160817181DC01ED91FC910288A2
:1050C000F389E02D0995882309F46FC0D6018D91ED
:1050D0009C91DC01ED91FC910480F581E02D099516
:1050E000049709F069C087E09FE00E94270FD6016E
:1050F000ED91FC91A786F80185A98F5F85AB209182
:10510000510230915202C90164E670E00E948F2C76
:10511000FB01C901039664E670E00E948F2CE6173C
:10512000F70748F483E69FE00E94270F80914D0225
:105130008F5F80934D0280915102909152020396AD
:105140009093520280935102D801D5969C91D597A5
:10515000D1968C91D197981328C09E96ED91FC9191
:105160000190F081E02DB38620C0ED91FC91119764
:105170000480F581E02DCD010995F601A081B18172
:10518000089741F41B968D919C911C97181619064F
:105190000CF489CFED91FC9111970480F581E02DFD
:1051A000CD010995079709F07ECFFFEFEF1AFF0AAF
:1051B00022E0C20ED11C4DCFF60180819181DC012D
:1051C000ED91FC910480F581E02D0995F601A08117
:1051D000B181069731F41D968C911D97882309F4AF
:1051E0004FC0ED91FC9111970480F581E02DCD0128
:1051F0000995029709F444C0D6018D919C91DC0178
:10520000ED91FC910480F581E02D09950797C1F19E
:10521000F60180819181DC01ED91FC910480F581A2
:10522000E02D0995039761F1F60180819181DC0100
:10523000ED91FC910480F581E02D0995089701F12D
:1052400080914E028F3FE1F0F60180819181DC0177
:10525000ED91FC910480F581E02D0995099709F005
:10526000A4CFD801D5969C91D597D1968C919813BF
:105270009CCF83EC9EE00E94270FF801B7AA95CF40
:105280000E94AE0BC8010E947E100E949E0B89ED09
:105290009EE00E94270FF801B6AA87CFD12CC12C1F
:1052A00077247394D801D2968C91D297D4969C91FE
:1052B000D497890F9927991FC816D90608F0A1C05D
:1052C0004601880C991C9496ED91FC91E80DF91D0E
:1052D0000190F081E02D309709F48FC0838594858B
:1052E000181619060CF089C0B12CA12CF80181A95F
:1052F00093A9890F9927991FA816B90608F07DC0B0
:105300007501EE0CFF1C02A0F3A1E02DEE0DFF1DB8
:1053100080819181009709F46CC0DC01ED91FC91D2
:105320000480F581E02D0995059709F044C0D80166
:105330009496ED91FC919597E80DF91D80819181EE
:105340009296ED91FC91EE0DFF1D60817181DC0163
:10535000ED91FC910288F389E02D0995882309F4E9
:1053600048C0D8019496ED91FC919597E80DF91DF0
:105370000190F081E02D148613869296ED91FC91B8
:10538000EE0DFF1D80819181DC01ED91FC91048087
:10539000F581E02D0995069761F58DE99EE00E9463
:1053A000270FF80182A193A1E80EF91ED701ED9114
:1053B000FC9175861EC0D8019296ED91FC91EE0D80
:1053C000FF1D80819181DC01ED91FC910480F581CC
:1053D000E02D0995069769F4D8019296ED91FC911C
:1053E000EE0DFF1D0190F081E02D8585882309F4E5
:1053F0009ECFBFEFAB1ABB0A79CFEFEFCE1ADE0A12
:1054000051CF00914B0210914C02D801D7969C913C
:10541000D797D6968C91911190C1882311F40C9452
:10542000C11E80914D02815080934D02882349F125
:1054300083E0809355029923A9F0809147029091CF
:105440004802A0914902B0914A02823C9140A105D4
:10545000B105C8F485E08093550280914E028F5FBC
:1054600080934E020115110531F0C8010E94A7106A
:10547000C8010E94592D10924C0210924B020C94BC
:10548000C11E86E0D6CF83E0E6CF8091D60680931A
:10549000D7060E943F0F8093D6068091460288234C
:1054A00009F469C00E943F0F8C7FD1F5109246022B
:1054B000809100018130A1F58091D70683FF04C05F
:1054C0009091D60693FF06C082FF2AC08091D6062F
:1054D00082FD26C0F11007C081E08093540282E073
:1054E0008093550213C0F2E0FF1236C010925202B0
:1054F0001092510281E080934E0293E090934D020E
:10550000909355028093E0061092E1068091550237
:10551000843059F580914202909143020E94F22B0F
:105520000E94ED2B092E000CAA0BBB0B40914202EE
:10553000509143026091440270914502840F951F7F
:10554000A61FB71F8093420290934302A093440288
:10555000B09345020C94C11E25E0F21202C083E014
:10556000BFCFF394F0925502D1CF8730C8F282E0DA
:1055700080935502D5CF88E00E94C10B882379F132
:1055800031E0F316A1F342E0F412CACF809100019A
:105590008130C1F040F0823019F610920201109271
:1055A000010181E0E5CF80914102882341F00E9412
:1055B000530F0E94D8138FEF80930301B1CF0E9445
:1055C000580FF7CF02E026E147E15FE06DE170E0C0
:1055D00087E590E00E94DB0A0E949E0BA1CF84E049
:1055E0000E94C10B882391F182E0F81207C08091DC
:1055F00000018130B1F030F0823001F181E0809320
:1056000046028ECF80914102882341F00E94530FC1
:105610000E94D8138FEF80930301F0CF0E94580FA0
:10562000F7CF02E026E147E15FE06DE170E087E55A
:1056300090E00E94DB0A0E949E0BE0CF10920201D4
:105640001092010181E080935502D8CF80E20E9440
:10565000C10B882389F091E0F91262CF8091530247
:10566000882341F0815080935302109202011092DE
:105670000101A1CF85E0F7CF80E40E94C10B882310
:1056800061F0A1E0FA124CCF80915302853010F402
:105690008F5FE9CF10925302E8CF80E80E94C10BE0
:1056A0008823F1F0B1E0FB120EC0809101019091CE
:1056B0000201181619060CF0ADCF01979093020164
:1056C00080930101A7CFE2E0FE1298CF8091000104
:1056D000882321F08150809300019CCF82E0FBCF92
:1056E00080E10E94C10B882309F41ACFF1E0FF1278
:1056F00013C08091010190910201E0915302F0E00A
:10570000EA53FB4EE4919C01295F3F4F0196E2175B
:10571000130609F09CF67ECF22E0F2126FCF809143
:105720000001823010F48F5FD6CF1092000172CF4B
:10573000E0904B02F0904C02B8CA882309F47DCE69
:1057400070CE8F929F92AF92BF92CF92DF92EF92E4
:10575000FF92CF93DF93EC01688179818A819B81ED
:10576000611571058105910521F464E279ED8BE500
:1057700097E02DE133EF41E050E00E942C2C4901ED
:105780005A019B01AC01A7EAB1E40E944B2C6B01CA
:105790007C01ACEEB4EFA50194010E94592CDC0110
:1057A000CB018C0D9D1DAE1DBF1DB7FF03C0019722
:1057B000A109B04888839983AA83BB839F77DF912F
:1057C000CF91FF90EF90DF90CF90BF90AF909F90E0
:1057D0008F9008950E94A12B089580E191E00E948E
:1057E000A12B0895B0E0A0E08093100190931101E7
:1057F000A0931201B09313010895FB01DC0102C0D4
:1058000005900D9241505040D8F70895FB01DC01FE
:1058100005900D920020E1F70895FC01059000200D
:10582000E9F7809590958E0F9F1F0895F999FECF07
:1058300092BD81BDF89A992780B50895262FF999D0
:10584000FECF1FBA92BD81BD20BD0FB6F894FA9A63
:10585000F99A0FBE01960895052E97FB1EF4009449
:105860000E94432C57FD07D00E945E2C07FC03D0FA
:105870004EF40C94432C50954095309521953F4F14
:105880004F4F5F4F089590958095709561957F4F2C
:105890008F4F9F4F08950E94802CA59F900DB49F1D
:1058A000900DA49F800D911D11240895B7FF0C94B5
:1058B0004B2C0E944B2C821B930B0895A1E21A2EB5
:1058C000AA1BBB1BFD010DC0AA1FBB1FEE1FFF1FA4
:1058D000A217B307E407F50720F0A21BB30BE40BF4
:1058E000F50B661F771F881F991F1A9469F760953B
:1058F0007095809590959B01AC01BD01CF010895F5
:10590000A29FB001B39FC001A39F700D811D112400
:10591000911DB29F700D811D1124911D0895AA1B28
:10592000BB1B51E107C0AA1FBB1FA617B70710F08A
:10593000A61BB70B881F991F5A95A9F780959095BC
:10594000BC01CD01089597FB072E16F4009407D0F3
:1059500077FD09D00E948F2C07FC05D03EF490956E
:1059600081959F4F0895709561957F4F0895EE0F33
:10597000FF1F0590F491E02D09940F931F93CF938F
:10598000DF938230910510F482E090E0E091E6062A
:10599000F091E70630E020E0B0E0A0E0309799F425
:1059A0002115310509F44AC0281B390B2430310573
:1059B000D8F58A819B816115710589F1FB0193837B
:1059C0008283FE0111C040815181028113814817F9
:1059D0005907E0F04817590799F4109761F01296AB
:1059E0000C93129713961C933296CF01DF91CF91AF
:1059F0001F910F9108950093E6061093E706F4CFE8
:105A00002115310551F04217530738F0A901DB0188
:105A10009A01BD01DF01F801C1CFEF01F9CF9093E9
:105A2000E7068093E606CDCFFE01E20FF31F8193D8
:105A300091932250310939832883D7CF2091E406EE
:105A40003091E506232B41F4209116013091170186
:105A50003093E5062093E40620911401309115015E
:105A60002115310541F42DB73EB7409118015091F1
:105A70001901241B350BE091E406F091E506E217CD
:105A8000F307A0F42E1B3F0B2817390778F0AC0161
:105A90004E5F5F4F2417350748F04E0F5F1F50933E
:105AA000E5064093E406819391939FCFF0E0E0E018
:105AB0009CCFCF93DF930097E9F0FC0132971382DC
:105AC0001282A091E606B091E706ED0130E020E0F9
:105AD0001097A1F420813181820F931F2091E40659
